{
  "contractName": "Congo",
  "abi": [
    {
      "inputs": [],
      "payable": false,
      "stateMutability": "nonpayable",
      "type": "constructor"
    },
    {
      "anonymous": false,
      "inputs": [
        {
          "indexed": false,
          "internalType": "uint256",
          "name": "id",
          "type": "uint256"
        },
        {
          "indexed": false,
          "internalType": "uint256",
          "name": "quantity",
          "type": "uint256"
        },
        {
          "indexed": false,
          "internalType": "uint256",
          "name": "price",
          "type": "uint256"
        },
        {
          "indexed": false,
          "internalType": "string",
          "name": "details",
          "type": "string"
        },
        {
          "indexed": false,
          "internalType": "string",
          "name": "name",
          "type": "string"
        },
        {
          "indexed": false,
          "internalType": "address payable",
          "name": "owner",
          "type": "address"
        },
        {
          "indexed": false,
          "internalType": "string",
          "name": "sellerContactDetails",
          "type": "string"
        }
      ],
      "name": "listingCreated",
      "type": "event"
    },
    {
      "anonymous": false,
      "inputs": [
        {
          "indexed": false,
          "internalType": "uint256",
          "name": "id",
          "type": "uint256"
        },
        {
          "indexed": false,
          "internalType": "uint256",
          "name": "quantity",
          "type": "uint256"
        },
        {
          "indexed": false,
          "internalType": "uint256",
          "name": "price",
          "type": "uint256"
        },
        {
          "indexed": false,
          "internalType": "string",
          "name": "details",
          "type": "string"
        },
        {
          "indexed": false,
          "internalType": "string",
          "name": "name",
          "type": "string"
        },
        {
          "indexed": false,
          "internalType": "address payable",
          "name": "owner",
          "type": "address"
        },
        {
          "indexed": false,
          "internalType": "string",
          "name": "sellerContactDetails",
          "type": "string"
        }
      ],
      "name": "listingUpdated",
      "type": "event"
    },
    {
      "anonymous": false,
      "inputs": [
        {
          "indexed": false,
          "internalType": "uint256",
          "name": "orderID",
          "type": "uint256"
        },
        {
          "indexed": false,
          "internalType": "uint256",
          "name": "quantity",
          "type": "uint256"
        },
        {
          "indexed": false,
          "internalType": "uint256",
          "name": "prodID",
          "type": "uint256"
        },
        {
          "indexed": false,
          "internalType": "uint256",
          "name": "total",
          "type": "uint256"
        },
        {
          "indexed": false,
          "internalType": "string",
          "name": "prodName",
          "type": "string"
        },
        {
          "indexed": false,
          "internalType": "address payable",
          "name": "buyerAddress",
          "type": "address"
        },
        {
          "indexed": false,
          "internalType": "address payable",
          "name": "sellerAddress",
          "type": "address"
        },
        {
          "indexed": false,
          "internalType": "string",
          "name": "notes",
          "type": "string"
        },
        {
          "indexed": false,
          "internalType": "string",
          "name": "sellerContactDetails",
          "type": "string"
        },
        {
          "indexed": false,
          "internalType": "string",
          "name": "buyerContactDetails",
          "type": "string"
        },
        {
          "indexed": false,
          "internalType": "enum Congo.State",
          "name": "orderStatus",
          "type": "uint8"
        }
      ],
      "name": "orderCreated",
      "type": "event"
    },
    {
      "anonymous": false,
      "inputs": [
        {
          "indexed": false,
          "internalType": "uint256",
          "name": "orderID",
          "type": "uint256"
        },
        {
          "indexed": false,
          "internalType": "enum Congo.State",
          "name": "orderStatus",
          "type": "uint8"
        }
      ],
      "name": "orderUpdated",
      "type": "event"
    },
    {
      "constant": true,
      "inputs": [],
      "name": "name",
      "outputs": [
        {
          "internalType": "string",
          "name": "",
          "type": "string"
        }
      ],
      "payable": false,
      "stateMutability": "view",
      "type": "function"
    },
    {
      "constant": true,
      "inputs": [],
      "name": "orderCount",
      "outputs": [
        {
          "internalType": "uint256",
          "name": "",
          "type": "uint256"
        }
      ],
      "payable": false,
      "stateMutability": "view",
      "type": "function"
    },
    {
      "constant": true,
      "inputs": [
        {
          "internalType": "uint256",
          "name": "",
          "type": "uint256"
        }
      ],
      "name": "orders",
      "outputs": [
        {
          "internalType": "uint256",
          "name": "id",
          "type": "uint256"
        },
        {
          "internalType": "uint256",
          "name": "quantity",
          "type": "uint256"
        },
        {
          "internalType": "uint256",
          "name": "prodID",
          "type": "uint256"
        },
        {
          "internalType": "uint256",
          "name": "total",
          "type": "uint256"
        },
        {
          "internalType": "string",
          "name": "prodName",
          "type": "string"
        },
        {
          "internalType": "address payable",
          "name": "buyerAddress",
          "type": "address"
        },
        {
          "internalType": "address payable",
          "name": "sellerAddress",
          "type": "address"
        },
        {
          "internalType": "string",
          "name": "notes",
          "type": "string"
        },
        {
          "internalType": "string",
          "name": "sellerContactDetails",
          "type": "string"
        },
        {
          "internalType": "string",
          "name": "buyerContactDetails",
          "type": "string"
        },
        {
          "internalType": "enum Congo.State",
          "name": "orderStatus",
          "type": "uint8"
        }
      ],
      "payable": false,
      "stateMutability": "view",
      "type": "function"
    },
    {
      "constant": true,
      "inputs": [],
      "name": "productCount",
      "outputs": [
        {
          "internalType": "uint256",
          "name": "",
          "type": "uint256"
        }
      ],
      "payable": false,
      "stateMutability": "view",
      "type": "function"
    },
    {
      "constant": true,
      "inputs": [
        {
          "internalType": "uint256",
          "name": "",
          "type": "uint256"
        }
      ],
      "name": "products",
      "outputs": [
        {
          "internalType": "uint256",
          "name": "id",
          "type": "uint256"
        },
        {
          "internalType": "uint256",
          "name": "quantity",
          "type": "uint256"
        },
        {
          "internalType": "uint256",
          "name": "price",
          "type": "uint256"
        },
        {
          "internalType": "string",
          "name": "details",
          "type": "string"
        },
        {
          "internalType": "string",
          "name": "name",
          "type": "string"
        },
        {
          "internalType": "address payable",
          "name": "owner",
          "type": "address"
        },
        {
          "internalType": "string",
          "name": "sellerContactDetails",
          "type": "string"
        }
      ],
      "payable": false,
      "stateMutability": "view",
      "type": "function"
    },
    {
      "constant": false,
      "inputs": [
        {
          "internalType": "uint256",
          "name": "_quantity",
          "type": "uint256"
        },
        {
          "internalType": "uint256",
          "name": "_price",
          "type": "uint256"
        },
        {
          "internalType": "string",
          "name": "_details",
          "type": "string"
        },
        {
          "internalType": "string",
          "name": "_name",
          "type": "string"
        },
        {
          "internalType": "string",
          "name": "_sellerContactDetails",
          "type": "string"
        }
      ],
      "name": "createListing",
      "outputs": [],
      "payable": false,
      "stateMutability": "nonpayable",
      "type": "function"
    },
    {
      "constant": false,
      "inputs": [
        {
          "internalType": "uint256",
          "name": "_id",
          "type": "uint256"
        },
        {
          "internalType": "uint256",
          "name": "_quantity",
          "type": "uint256"
        },
        {
          "internalType": "uint256",
          "name": "_price",
          "type": "uint256"
        },
        {
          "internalType": "string",
          "name": "_details",
          "type": "string"
        },
        {
          "internalType": "string",
          "name": "_name",
          "type": "string"
        },
        {
          "internalType": "string",
          "name": "_sellerContactDetails",
          "type": "string"
        }
      ],
      "name": "updateListing",
      "outputs": [],
      "payable": true,
      "stateMutability": "payable",
      "type": "function"
    },
    {
      "constant": false,
      "inputs": [
        {
          "internalType": "uint256",
          "name": "_id",
          "type": "uint256"
        },
        {
          "internalType": "uint256",
          "name": "_quantity",
          "type": "uint256"
        },
        {
          "internalType": "string",
          "name": "_notes",
          "type": "string"
        },
        {
          "internalType": "string",
          "name": "_buyerContactDetails",
          "type": "string"
        }
      ],
      "name": "createOrder",
      "outputs": [],
      "payable": true,
      "stateMutability": "payable",
      "type": "function"
    },
    {
      "constant": false,
      "inputs": [
        {
          "internalType": "uint256",
          "name": "_id",
          "type": "uint256"
        },
        {
          "internalType": "uint256",
          "name": "nextState",
          "type": "uint256"
        }
      ],
      "name": "updateOrder",
      "outputs": [],
      "payable": true,
      "stateMutability": "payable",
      "type": "function"
    }
  ],
  "bytecode": "0x60806040523480156200001157600080fd5b506040518060400160405280600e81526020017f436f6e676f2045786368616e6765000000000000000000000000000000000000815250600090805190602001906200005f92919062000066565b5062000115565b828054600181600116156101000203166002900490600052602060002090601f016020900481019282601f10620000a957805160ff1916838001178555620000da565b82800160010185558215620000da579182015b82811115620000d9578251825591602001919060010190620000bc565b5b509050620000e99190620000ed565b5090565b6200011291905b808211156200010e576000816000905550600101620000f4565b5090565b90565b6133ee80620001256000396000f3fe6080604052600436106100865760003560e01c8063587b71a611610059578063587b71a6146104b65780637acc0b20146104ee578063a85c38ef146106c2578063e0f6ef8714610951578063f73e1fdf1461097c57610086565b806306fdde031461008b5780632453ffa81461011b57806335441036146101465780634a4b7e3e14610350575b600080fd5b34801561009757600080fd5b506100a0610b83565b6040518080602001828103825283818151815260200191508051906020019080838360005b838110156100e05780820151818401526020810190506100c5565b50505050905090810190601f16801561010d5780820380516001836020036101000a031916815260200191505b509250505060405180910390f35b34801561012757600080fd5b50610130610c21565b6040518082815260200191505060405180910390f35b34801561015257600080fd5b5061034e600480360360a081101561016957600080fd5b8101908080359060200190929190803590602001909291908035906020019064010000000081111561019a57600080fd5b8201836020820111156101ac57600080fd5b803590602001918460018302840111640100000000831117156101ce57600080fd5b91908080601f016020809104026020016040519081016040528093929190818152602001838380828437600081840152601f19601f8201169050808301925050505050505091929192908035906020019064010000000081111561023157600080fd5b82018360208201111561024357600080fd5b8035906020019184600183028401116401000000008311171561026557600080fd5b91908080601f016020809104026020016040519081016040528093929190818152602001838380828437600081840152601f19601f820116905080830192505050505050509192919290803590602001906401000000008111156102c857600080fd5b8201836020820111156102da57600080fd5b803590602001918460018302840111640100000000831117156102fc57600080fd5b91908080601f016020809104026020016040519081016040528093929190818152602001838380828437600081840152601f19601f820116905080830192505050505050509192919290505050610c27565b005b6104b46004803603608081101561036657600080fd5b8101908080359060200190929190803590602001909291908035906020019064010000000081111561039757600080fd5b8201836020820111156103a957600080fd5b803590602001918460018302840111640100000000831117156103cb57600080fd5b91908080601f016020809104026020016040519081016040528093929190818152602001838380828437600081840152601f19601f8201169050808301925050505050505091929192908035906020019064010000000081111561042e57600080fd5b82018360208201111561044057600080fd5b8035906020019184600183028401116401000000008311171561046257600080fd5b91908080601f016020809104026020016040519081016040528093929190818152602001838380828437600081840152601f19601f82011690508083019250505050505050919291929050505061113a565b005b6104ec600480360360408110156104cc57600080fd5b810190808035906020019092919080359060200190929190505050611c38565b005b3480156104fa57600080fd5b506105276004803603602081101561051157600080fd5b8101908080359060200190929190505050612369565b6040518088815260200187815260200186815260200180602001806020018573ffffffffffffffffffffffffffffffffffffffff1673ffffffffffffffffffffffffffffffffffffffff16815260200180602001848103845288818151815260200191508051906020019080838360005b838110156105b3578082015181840152602081019050610598565b50505050905090810190601f1680156105e05780820380516001836020036101000a031916815260200191505b50848103835287818151815260200191508051906020019080838360005b838110156106195780820151818401526020810190506105fe565b50505050905090810190601f1680156106465780820380516001836020036101000a031916815260200191505b50848103825285818151815260200191508051906020019080838360005b8381101561067f578082015181840152602081019050610664565b50505050905090810190601f1680156106ac5780820380516001836020036101000a031916815260200191505b509a505050505050505050505060405180910390f35b3480156106ce57600080fd5b506106fb600480360360208110156106e557600080fd5b8101908080359060200190929190505050612593565b604051808c81526020018b81526020018a8152602001898152602001806020018873ffffffffffffffffffffffffffffffffffffffff1673ffffffffffffffffffffffffffffffffffffffff1681526020018773ffffffffffffffffffffffffffffffffffffffff1673ffffffffffffffffffffffffffffffffffffffff16815260200180602001806020018060200186600481111561079757fe5b60ff16815260200185810385528c818151815260200191508051906020019080838360005b838110156107d75780820151818401526020810190506107bc565b50505050905090810190601f1680156108045780820380516001836020036101000a031916815260200191505b50858103845289818151815260200191508051906020019080838360005b8381101561083d578082015181840152602081019050610822565b50505050905090810190601f16801561086a5780820380516001836020036101000a031916815260200191505b50858103835288818151815260200191508051906020019080838360005b838110156108a3578082015181840152602081019050610888565b50505050905090810190601f1680156108d05780820380516001836020036101000a031916815260200191505b50858103825287818151815260200191508051906020019080838360005b838110156109095780820151818401526020810190506108ee565b50505050905090810190601f1680156109365780820380516001836020036101000a031916815260200191505b509f5050505050505050505050505050505060405180910390f35b34801561095d57600080fd5b5061096661289a565b6040518082815260200191505060405180910390f35b610b81600480360360c081101561099257600080fd5b81019080803590602001909291908035906020019092919080359060200190929190803590602001906401000000008111156109cd57600080fd5b8201836020820111156109df57600080fd5b80359060200191846001830284011164010000000083111715610a0157600080fd5b91908080601f016020809104026020016040519081016040528093929190818152602001838380828437600081840152601f19601f82011690508083019250505050505050919291929080359060200190640100000000811115610a6457600080fd5b820183602082011115610a7657600080fd5b80359060200191846001830284011164010000000083111715610a9857600080fd5b91908080601f016020809104026020016040519081016040528093929190818152602001838380828437600081840152601f19601f82011690508083019250505050505050919291929080359060200190640100000000811115610afb57600080fd5b820183602082011115610b0d57600080fd5b80359060200191846001830284011164010000000083111715610b2f57600080fd5b91908080601f016020809104026020016040519081016040528093929190818152602001838380828437600081840152601f19601f8201169050808301925050505050505091929192905050506128a0565b005b60008054600181600116156101000203166002900480601f016020809104026020016040519081016040528092919081815260200182805460018160011615610100020316600290048015610c195780601f10610bee57610100808354040283529160200191610c19565b820191906000526020600020905b815481529060010190602001808311610bfc57829003601f168201915b505050505081565b60025481565b6000825111610c9e576040517f08c379a000000000000000000000000000000000000000000000000000000000815260040180806020018281038252601d8152602001807f50726f64756374206e616d652063616e6e6f7420626520656d7074792e00000081525060200191505060405180910390fd5b60008411610cf7576040517f08c379a00000000000000000000000000000000000000000000000000000000081526004018080602001828103825260278152602001806132ce6027913960400191505060405180910390fd5b60008511610d50576040517f08c379a000000000000000000000000000000000000000000000000000000000815260040180806020018281038252602a815260200180613390602a913960400191505060405180910390fd5b6000835111610dc7576040517f08c379a00000000000000000000000000000000000000000000000000000000081526004018080602001828103825260198152602001807f50726f647563742044657461696c732061726520656d7074790000000000000081525060200191505060405180910390fd5b6000815111610e3e576040517f08c379a00000000000000000000000000000000000000000000000000000000081526004018080602001828103825260208152602001807f53656c6c657220436f6e746163742044657461696c732061726520656d70747981525060200191505060405180910390fd5b6001600081548092919060010191905055506040518060e0016040528060015481526020018681526020018581526020018481526020018381526020013373ffffffffffffffffffffffffffffffffffffffff168152602001828152506003600060015481526020019081526020016000206000820151816000015560208201518160010155604082015181600201556060820151816003019080519060200190610eea929190613118565b506080820151816004019080519060200190610f07929190613118565b5060a08201518160050160006101000a81548173ffffffffffffffffffffffffffffffffffffffff021916908373ffffffffffffffffffffffffffffffffffffffff16021790555060c0820151816006019080519060200190610f6b929190613118565b509050507f4fba91355208853de0dfeeab1906867ff6986ffa055d6af231de013a1a7282ae6001548686868633876040518088815260200187815260200186815260200180602001806020018573ffffffffffffffffffffffffffffffffffffffff1673ffffffffffffffffffffffffffffffffffffffff16815260200180602001848103845288818151815260200191508051906020019080838360005b8381101561102557808201518184015260208101905061100a565b50505050905090810190601f1680156110525780820380516001836020036101000a031916815260200191505b50848103835287818151815260200191508051906020019080838360005b8381101561108b578082015181840152602081019050611070565b50505050905090810190601f1680156110b85780820380516001836020036101000a031916815260200191505b50848103825285818151815260200191508051906020019080838360005b838110156110f15780820151818401526020810190506110d6565b50505050905090810190601f16801561111e5780820380516001836020036101000a031916815260200191505b509a505050505050505050505060405180910390a15050505050565b60008311611193576040517f08c379a000000000000000000000000000000000000000000000000000000000815260040180806020018281038252602a815260200180613390602a913960400191505060405180910390fd5b60015484111580156111a55750600084115b611217576040517f08c379a00000000000000000000000000000000000000000000000000000000081526004018080602001828103825260168152602001807f70726f6475637420696420697320696e76616c69642e0000000000000000000081525060200191505060405180910390fd5b600081511161128e576040517f08c379a000000000000000000000000000000000000000000000000000000000815260040180806020018281038252601f8152602001807f427579657220436f6e746163742044657461696c732061726520656d7074790081525060200191505060405180910390fd5b611296613198565b600360008681526020019081526020016000206040518060e0016040529081600082015481526020016001820154815260200160028201548152602001600382018054600181600116156101000203166002900480601f01602080910402602001604051908101604052809291908181526020018280546001816001161561010002031660029004801561136b5780601f106113405761010080835404028352916020019161136b565b820191906000526020600020905b81548152906001019060200180831161134e57829003601f168201915b50505050508152602001600482018054600181600116156101000203166002900480601f01602080910402602001604051908101604052809291908181526020018280546001816001161561010002031660029004801561140d5780601f106113e25761010080835404028352916020019161140d565b820191906000526020600020905b8154815290600101906020018083116113f057829003601f168201915b505050505081526020016005820160009054906101000a900473ffffffffffffffffffffffffffffffffffffffff1673ffffffffffffffffffffffffffffffffffffffff1673ffffffffffffffffffffffffffffffffffffffff168152602001600682018054600181600116156101000203166002900480601f0160208091040260200160405190810160405280929190818152602001828054600181600116156101000203166002900480156115055780601f106114da57610100808354040283529160200191611505565b820191906000526020600020905b8154815290600101906020018083116114e857829003601f168201915b505050505081525050905060008160a001519050600033905060008360200151905080871115611580576040517f08c379a000000000000000000000000000000000000000000000000000000000815260040180806020018281038252602c8152602001806132a2602c913960400191505060405180910390fd5b60008785604001510290508373ffffffffffffffffffffffffffffffffffffffff168373ffffffffffffffffffffffffffffffffffffffff161415611610576040517f08c379a00000000000000000000000000000000000000000000000000000000081526004018080602001828103825260268152602001806132f56026913960400191505060405180910390fd5b80341015611669576040517f08c379a00000000000000000000000000000000000000000000000000000000081526004018080602001828103825260238152602001806133476023913960400191505060405180910390fd5b8785602001510385602001818152505084600360008b815260200190815260200160002060008201518160000155602082015181600101556040820151816002015560608201518160030190805190602001906116c7929190613118565b5060808201518160040190805190602001906116e4929190613118565b5060a08201518160050160006101000a81548173ffffffffffffffffffffffffffffffffffffffff021916908373ffffffffffffffffffffffffffffffffffffffff16021790555060c0820151816006019080519060200190611748929190613118565b5090505060026000815480929190600101919050555060405180610160016040528060025481526020018981526020018a8152602001828152602001866080015181526020018473ffffffffffffffffffffffffffffffffffffffff1681526020018573ffffffffffffffffffffffffffffffffffffffff1681526020018881526020018660c001518152602001878152602001600060048111156117e957fe5b815250600460006002548152602001908152602001600020600082015181600001556020820151816001015560408201518160020155606082015181600301556080820151816004019080519060200190611845929190613118565b5060a08201518160050160006101000a81548173ffffffffffffffffffffffffffffffffffffffff021916908373ffffffffffffffffffffffffffffffffffffffff16021790555060c08201518160060160006101000a81548173ffffffffffffffffffffffffffffffffffffffff021916908373ffffffffffffffffffffffffffffffffffffffff16021790555060e08201518160070190805190602001906118f0929190613118565b5061010082015181600801908051906020019061190e929190613118565b5061012082015181600901908051906020019061192c929190613118565b5061014082015181600a0160006101000a81548160ff0219169083600481111561195257fe5b02179055509050508373ffffffffffffffffffffffffffffffffffffffff166108fc349081150290604051600060405180830381858888f193505050501580156119a0573d6000803e3d6000fd5b507f222a393215b1913680e04cacf6ab8787ca04ab6a8406b3a507106ed4bbdf9d8d600254898b848960800151888a8e8d60c001518f6000604051808c81526020018b81526020018a8152602001898152602001806020018873ffffffffffffffffffffffffffffffffffffffff1673ffffffffffffffffffffffffffffffffffffffff1681526020018773ffffffffffffffffffffffffffffffffffffffff1673ffffffffffffffffffffffffffffffffffffffff168152602001806020018060200180602001866004811115611a7457fe5b60ff16815260200185810385528c818151815260200191508051906020019080838360005b83811015611ab4578082015181840152602081019050611a99565b50505050905090810190601f168015611ae15780820380516001836020036101000a031916815260200191505b50858103845289818151815260200191508051906020019080838360005b83811015611b1a578082015181840152602081019050611aff565b50505050905090810190601f168015611b475780820380516001836020036101000a031916815260200191505b50858103835288818151815260200191508051906020019080838360005b83811015611b80578082015181840152602081019050611b65565b50505050905090810190601f168015611bad5780820380516001836020036101000a031916815260200191505b50858103825287818151815260200191508051906020019080838360005b83811015611be6578082015181840152602081019050611bcb565b50505050905090810190601f168015611c135780820380516001836020036101000a031916815260200191505b509f5050505050505050505050505050505060405180910390a1505050505050505050565b6002548211158015611c4a5750600082115b611cbc576040517f08c379a00000000000000000000000000000000000000000000000000000000081526004018080602001828103825260148152602001807f6f7264657220696420697320696e76616c69642e00000000000000000000000081525060200191505060405180910390fd5b80600480811115611cc957fe5b1015611d3d576040517f08c379a00000000000000000000000000000000000000000000000000000000081526004018080602001828103825260168152602001807f696e76616c696420696e7075742073746174652e203e0000000000000000000081525060200191505060405180910390fd5b611d456131eb565b600460008481526020019081526020016000206040518061016001604052908160008201548152602001600182015481526020016002820154815260200160038201548152602001600482018054600181600116156101000203166002900480601f016020809104026020016040519081016040528092919081815260200182805460018160011615610100020316600290048015611e255780601f10611dfa57610100808354040283529160200191611e25565b820191906000526020600020905b815481529060010190602001808311611e0857829003601f168201915b505050505081526020016005820160009054906101000a900473ffffffffffffffffffffffffffffffffffffffff1673ffffffffffffffffffffffffffffffffffffffff1673ffffffffffffffffffffffffffffffffffffffff1681526020016006820160009054906101000a900473ffffffffffffffffffffffffffffffffffffffff1673ffffffffffffffffffffffffffffffffffffffff1673ffffffffffffffffffffffffffffffffffffffff168152602001600782018054600181600116156101000203166002900480601f016020809104026020016040519081016040528092919081815260200182805460018160011615610100020316600290048015611f735780601f10611f4857610100808354040283529160200191611f73565b820191906000526020600020905b815481529060010190602001808311611f5657829003601f168201915b50505050508152602001600882018054600181600116156101000203166002900480601f0160208091040260200160405190810160405280929190818152602001828054600181600116156101000203166002900480156120155780601f10611fea57610100808354040283529160200191612015565b820191906000526020600020905b815481529060010190602001808311611ff857829003601f168201915b50505050508152602001600982018054600181600116156101000203166002900480601f0160208091040260200160405190810160405280929190818152602001828054600181600116156101000203166002900480156120b75780601f1061208c576101008083540402835291602001916120b7565b820191906000526020600020905b81548152906001019060200180831161209a57829003601f168201915b50505050508152602001600a820160009054906101000a900460ff1660048111156120de57fe5b60048111156120e957fe5b8152505090508060c0015173ffffffffffffffffffffffffffffffffffffffff163373ffffffffffffffffffffffffffffffffffffffff1614612177576040517f08c379a000000000000000000000000000000000000000000000000000000000815260040180806020018281038252602c81526020018061331b602c913960400191505060405180910390fd5b81600481111561218357fe5b816101400190600481111561219457fe5b908160048111156121a157fe5b8152505080600460008581526020019081526020016000206000820151816000015560208201518160010155604082015181600201556060820151816003015560808201518160040190805190602001906121fd929190613118565b5060a08201518160050160006101000a81548173ffffffffffffffffffffffffffffffffffffffff021916908373ffffffffffffffffffffffffffffffffffffffff16021790555060c08201518160060160006101000a81548173ffffffffffffffffffffffffffffffffffffffff021916908373ffffffffffffffffffffffffffffffffffffffff16021790555060e08201518160070190805190602001906122a8929190613118565b506101008201518160080190805190602001906122c6929190613118565b506101208201518160090190805190602001906122e4929190613118565b5061014082015181600a0160006101000a81548160ff0219169083600481111561230a57fe5b02179055509050507f5f1ed4d1c4bd2dbc03f9f80ac9ac30bb73c1d56762781ae27044bb72b5f99707838261014001516040518083815260200182600481111561235057fe5b60ff1681526020019250505060405180910390a1505050565b6003602052806000526040600020600091509050806000015490806001015490806002015490806003018054600181600116156101000203166002900480601f0160208091040260200160405190810160405280929190818152602001828054600181600116156101000203166002900480156124275780601f106123fc57610100808354040283529160200191612427565b820191906000526020600020905b81548152906001019060200180831161240a57829003601f168201915b505050505090806004018054600181600116156101000203166002900480601f0160208091040260200160405190810160405280929190818152602001828054600181600116156101000203166002900480156124c55780601f1061249a576101008083540402835291602001916124c5565b820191906000526020600020905b8154815290600101906020018083116124a857829003601f168201915b5050505050908060050160009054906101000a900473ffffffffffffffffffffffffffffffffffffffff1690806006018054600181600116156101000203166002900480601f0160208091040260200160405190810160405280929190818152602001828054600181600116156101000203166002900480156125895780601f1061255e57610100808354040283529160200191612589565b820191906000526020600020905b81548152906001019060200180831161256c57829003601f168201915b5050505050905087565b6004602052806000526040600020600091509050806000015490806001015490806002015490806003015490806004018054600181600116156101000203166002900480601f0160208091040260200160405190810160405280929190818152602001828054600181600116156101000203166002900480156126575780601f1061262c57610100808354040283529160200191612657565b820191906000526020600020905b81548152906001019060200180831161263a57829003601f168201915b5050505050908060050160009054906101000a900473ffffffffffffffffffffffffffffffffffffffff16908060060160009054906101000a900473ffffffffffffffffffffffffffffffffffffffff1690806007018054600181600116156101000203166002900480601f0160208091040260200160405190810160405280929190818152602001828054600181600116156101000203166002900480156127415780601f1061271657610100808354040283529160200191612741565b820191906000526020600020905b81548152906001019060200180831161272457829003601f168201915b505050505090806008018054600181600116156101000203166002900480601f0160208091040260200160405190810160405280929190818152602001828054600181600116156101000203166002900480156127df5780601f106127b4576101008083540402835291602001916127df565b820191906000526020600020905b8154815290600101906020018083116127c257829003601f168201915b505050505090806009018054600181600116156101000203166002900480601f01602080910402602001604051908101604052809291908181526020018280546001816001161561010002031660029004801561287d5780601f106128525761010080835404028352916020019161287d565b820191906000526020600020905b81548152906001019060200180831161286057829003601f168201915b50505050509080600a0160009054906101000a900460ff1690508b565b60015481565b6000825111612917576040517f08c379a000000000000000000000000000000000000000000000000000000000815260040180806020018281038252601d8152602001807f50726f64756374206e616d652063616e6e6f7420626520656d7074792e00000081525060200191505060405180910390fd5b60008411612970576040517f08c379a00000000000000000000000000000000000000000000000000000000081526004018080602001828103825260278152602001806132ce6027913960400191505060405180910390fd5b600085116129c9576040517f08c379a000000000000000000000000000000000000000000000000000000000815260040180806020018281038252602a815260200180613390602a913960400191505060405180910390fd5b6000835111612a40576040517f08c379a00000000000000000000000000000000000000000000000000000000081526004018080602001828103825260198152602001807f50726f647563742044657461696c732061726520656d7074790000000000000081525060200191505060405180910390fd5b6001548611158015612a525750600086115b612ac4576040517f08c379a00000000000000000000000000000000000000000000000000000000081526004018080602001828103825260168152602001807f70726f6475637420696420697320696e76616c69642e0000000000000000000081525060200191505060405180910390fd5b6000815111612b3b576040517f08c379a00000000000000000000000000000000000000000000000000000000081526004018080602001828103825260208152602001807f53656c6c657220436f6e746163742044657461696c732061726520656d70747981525060200191505060405180910390fd5b612b43613198565b600360008881526020019081526020016000206040518060e0016040529081600082015481526020016001820154815260200160028201548152602001600382018054600181600116156101000203166002900480601f016020809104026020016040519081016040528092919081815260200182805460018160011615610100020316600290048015612c185780601f10612bed57610100808354040283529160200191612c18565b820191906000526020600020905b815481529060010190602001808311612bfb57829003601f168201915b50505050508152602001600482018054600181600116156101000203166002900480601f016020809104026020016040519081016040528092919081815260200182805460018160011615610100020316600290048015612cba5780601f10612c8f57610100808354040283529160200191612cba565b820191906000526020600020905b815481529060010190602001808311612c9d57829003601f168201915b505050505081526020016005820160009054906101000a900473ffffffffffffffffffffffffffffffffffffffff1673ffffffffffffffffffffffffffffffffffffffff1673ffffffffffffffffffffffffffffffffffffffff168152602001600682018054600181600116156101000203166002900480601f016020809104026020016040519081016040528092919081815260200182805460018160011615610100020316600290048015612db25780601f10612d8757610100808354040283529160200191612db2565b820191906000526020600020905b815481529060010190602001808311612d9557829003601f168201915b505050505081525050905060008160a0015190503373ffffffffffffffffffffffffffffffffffffffff168173ffffffffffffffffffffffffffffffffffffffff1614612e4a576040517f08c379a000000000000000000000000000000000000000000000000000000000815260040180806020018281038252602681526020018061336a6026913960400191505060405180910390fd5b8382608001819052508582604001818152505086826020018181525050848260600181905250828260c0018190525081600360008a81526020019081526020016000206000820151816000015560208201518160010155604082015181600201556060820151816003019080519060200190612ec7929190613118565b506080820151816004019080519060200190612ee4929190613118565b5060a08201518160050160006101000a81548173ffffffffffffffffffffffffffffffffffffffff021916908373ffffffffffffffffffffffffffffffffffffffff16021790555060c0820151816006019080519060200190612f48929190613118565b509050507f52e161ede9ab39b2da4f4a5a25e39d21ebb3e26fe08d44e4ad294aa85fff6862888888888833896040518088815260200187815260200186815260200180602001806020018573ffffffffffffffffffffffffffffffffffffffff1673ffffffffffffffffffffffffffffffffffffffff16815260200180602001848103845288818151815260200191508051906020019080838360005b83811015613000578082015181840152602081019050612fe5565b50505050905090810190601f16801561302d5780820380516001836020036101000a031916815260200191505b50848103835287818151815260200191508051906020019080838360005b8381101561306657808201518184015260208101905061304b565b50505050905090810190601f1680156130935780820380516001836020036101000a031916815260200191505b50848103825285818151815260200191508051906020019080838360005b838110156130cc5780820151818401526020810190506130b1565b50505050905090810190601f1680156130f95780820380516001836020036101000a031916815260200191505b509a505050505050505050505060405180910390a15050505050505050565b828054600181600116156101000203166002900490600052602060002090601f016020900481019282601f1061315957805160ff1916838001178555613187565b82800160010185558215613187579182015b8281111561318657825182559160200191906001019061316b565b5b509050613194919061327c565b5090565b6040518060e001604052806000815260200160008152602001600081526020016060815260200160608152602001600073ffffffffffffffffffffffffffffffffffffffff168152602001606081525090565b6040518061016001604052806000815260200160008152602001600081526020016000815260200160608152602001600073ffffffffffffffffffffffffffffffffffffffff168152602001600073ffffffffffffffffffffffffffffffffffffffff1681526020016060815260200160608152602001606081526020016000600481111561327657fe5b81525090565b61329e91905b8082111561329a576000816000905550600101613282565b5090565b9056fe5075726368617365205175616e74697479206578636565647320417661696c61626c65205175616e7469747950726f64756374205072696365206d7573742062652067726561746572207468616e207a65726f596f752063616e6e6f7420707572636861736520796f7572206f776e2070726f64756374732e4f6e6c79207468652073656c6c65722063616e206d6f6469667920746865206f72646572207374617475732e4e6f7420656e6f75676820746f20636f7665722074686520746f74616c20636f73742e596f7520617265206e6f7420746865206f776e6572206f662074686973206c697374696e672e50726f64756374205175616e74697479206d7573742062652067726561746572207468616e207a65726fa265627a7a72315820afe8a52f69379a5c9fd89e87d927c055aec91364be50d733c60b1e41bc2ebc2c64736f6c634300050c0032",
  "source": "pragma solidity ^0.5.0;\n\ncontract Congo {\n\tstring public name;\n\tuint public productCount;\n\tuint public orderCount;\n\tenum State {Listed,Processing,Shipped,Complete,Exception}\n\tmapping(uint => Product) public products;\n\tmapping(uint => Order) public orders;\n\n\tstruct Order{\n\t\tuint id;\n\t\tuint quantity;\n\t\tuint prodID;\n\t\tuint256 total;\n\t\tstring prodName;\n\t\taddress payable buyerAddress;\n\t\taddress payable sellerAddress;\n\t\tstring notes;\n\t\tstring sellerContactDetails;\n\t\tstring buyerContactDetails;\n\t\tState orderStatus;\n\n\t}\n\tstruct Product{\n\t\tuint id;\n\t\tuint quantity;\n\t\tuint256 price;\n\t\tstring details;\n\t\tstring name;\n\t\taddress payable owner;\n\t\tstring sellerContactDetails;\n\t}\n\t//event to be emitted when a new product is listed.\n\tevent listingCreated(\n\t\tuint id,\n\t\tuint quantity,\n\t\tuint256 price,\n\t\tstring details,\n\t\tstring name,\n\t\taddress payable owner,\n\t\tstring sellerContactDetails\n\t);\n\t//event to be emitted when a listing is updated.\n\tevent listingUpdated(\n\t\tuint id,\n\t\tuint quantity,\n\t\tuint256 price,\n\t\tstring details,\n\t\tstring name,\n\t\taddress payable owner,\n\t\tstring sellerContactDetails\n\t);\n\t//event to be emitted when an order is updated.\n\tevent orderUpdated(\n\t\tuint orderID,\n\t\tState orderStatus\n\t);\n\t//emit that an order has been created between the two parties\n\tevent orderCreated(\n\t\tuint orderID,\n\t\tuint quantity,\n\t\tuint prodID,\n\t\tuint256 total,\n\t\tstring prodName,\n\t\taddress payable buyerAddress,\n\t\taddress payable sellerAddress,\n\t\tstring notes,\n\t\tstring sellerContactDetails,\n\t\tstring buyerContactDetails,\n\t\tState orderStatus\n\t);\n\tconstructor() public {\n\t\tname = \"Congo Exchange\";\n\t}\n\t//exposed function that lists a product.\n\tfunction createListing(\n\t\tuint _quantity,\n\t\tuint256 _price,\n\t\tstring memory _details,\n\t\tstring memory _name,\n\t\tstring memory _sellerContactDetails\n\t)\n\tpublic {\n\t\t//validate user's input\n\t\trequire(bytes(_name).length > 0,\"Product name cannot be empty.\");\n\t\trequire(_price > 0, \"Product Price must be greater than zero\");\n\t\trequire(_quantity > 0, \"Product Quantity must be greater than zero\");\n\t\trequire(bytes(_details).length > 0, \"Product Details are empty\");\n\t\trequire(bytes(_sellerContactDetails).length > 0, \"Seller Contact Details are empty\");\n\t\tproductCount++;\n\t\t//using product count as an id for now.\n\t\tproducts[productCount] = Product(\n\t\t\tproductCount,\n\t\t\t_quantity,\n\t\t\t_price,\n\t\t\t_details,\n\t\t\t_name,\n\t\t\tmsg.sender,\n\t\t\t_sellerContactDetails\n\t\t);\n\t\t//broadcast to listeners that a new item has been listed.\n\t\temit listingCreated(\n\t\t\tproductCount,\n\t\t\t_quantity,\n\t\t\t_price,\n\t\t\t_details,\n\t\t\t_name,\n\t\t\tmsg.sender,\n\t\t\t_sellerContactDetails\n\t\t);\n\n\t}\n\n\t//exposed function updates a listing.\n\tfunction updateListing(\n\t\tuint _id,\n\t\tuint _quantity,\n\t\tuint256 _price,\n\t\tstring memory _details,\n\t\tstring memory _name,\n\t\tstring memory _sellerContactDetails\n\t)\n\tpublic payable{\n\t\t//validate user's input\n\t\trequire(bytes(_name).length > 0,\"Product name cannot be empty.\");\n\t\trequire(_price > 0, \"Product Price must be greater than zero\");\n\t\trequire(_quantity > 0, \"Product Quantity must be greater than zero\");\n\t\trequire(bytes(_details).length > 0, \"Product Details are empty\");\n\t\trequire(_id <= productCount && _id > 0, \"product id is invalid.\");\n\t\trequire(bytes(_sellerContactDetails).length > 0, \"Seller Contact Details are empty\");\n\t\t//fetch the product.\n\t\tProduct memory _currentStateOfListing = products[_id];\n\n\t\t//compare if caller's address is the owner of this product.\n\t\taddress payable productOwner = _currentStateOfListing.owner;\n\t\trequire(productOwner == msg.sender, \"You are not the owner of this listing.\");\n\n\t\t//update the listing with new data.\n\t\t_currentStateOfListing.name = _name;\n\t\t_currentStateOfListing.price = _price;\n\t\t_currentStateOfListing.quantity = _quantity;\n\t\t_currentStateOfListing.details = _details;\n\t\t_currentStateOfListing.sellerContactDetails = _sellerContactDetails;\n\n\t\t//update mapping on network\n\t\tproducts[_id] = _currentStateOfListing;\n\n\t\t//broadcast to listeners that an existing product has been updated.\n\t\temit listingUpdated(\n\t\t\t_id,\n\t\t\t_quantity,\n\t\t\t_price,\n\t\t\t_details,\n\t\t\t_name,\n\t\t\tmsg.sender,\n\t\t\t_sellerContactDetails\n\t\t);\n\n\t}\n\n\t//exposed function that allows user to purchase products\n\tfunction createOrder(\n\t\tuint _id,\n\t\tuint _quantity,\n\t\tstring memory _notes,\n\t\tstring memory _buyerContactDetails\n\t)\n\tpublic payable{\n\t\t//validate user's input\n\t\trequire(_quantity > 0, \"Product Quantity must be greater than zero\");\n\t\trequire(_id <= productCount && _id > 0, \"product id is invalid.\");\n\t\trequire(bytes(_buyerContactDetails).length > 0, \"Buyer Contact Details are empty\");\n\n\t\t//get the product.\n\t\tProduct memory _listing = products[_id];\n\t\taddress payable seller = _listing.owner;\n\t\taddress payable buyer = msg.sender;\n\t\tuint quantityRemaining = _listing.quantity;\n\t\trequire(_quantity <= quantityRemaining,\"Purchase Quantity exceeds Available Quantity\");\n\t\tuint256 orderTotal = _listing.price * _quantity;\n\t\t//make sure buyer is not seller.\n\t\trequire(buyer != seller, \"You cannot purchase your own products.\");\n\t\t//make sure payment is sufficient.\n\t\trequire(msg.value >= orderTotal, \"Not enough to cover the total cost.\");\n\n\t\t//update the listing quantity.\n\t\t_listing.quantity = _listing.quantity - _quantity;\n\t\tproducts[_id] = _listing;\n\t\t//create a new order!\n\t\torderCount++;\n\t\torders[orderCount] = Order(\n\t\t\torderCount,\n\t\t\t_quantity,\n\t\t\t_id,\n\t\t\torderTotal,\n\t\t\t_listing.name,\n\t\t\tbuyer,\n\t\t\tseller,\n\t\t\t_notes,\n\t\t\t_listing.sellerContactDetails,\n\t\t\t_buyerContactDetails,\n\t\t\tState.Listed\n\t\t);\n\n\t\t//transfer value.\n\t\taddress(seller).transfer(msg.value);\n\t\t//broadcast to listeners that an existing product has been updated.\n\t\temit orderCreated(\n\t\t\torderCount,\n\t\t\t_quantity,\n\t\t\t_id,\n\t\t\torderTotal,\n\t\t\t_listing.name,\n\t\t\tbuyer,\n\t\t\tseller,\n\t\t\t_notes,\n\t\t\t_listing.sellerContactDetails,\n\t\t\t_buyerContactDetails,\n\t\t\tState.Listed\n\t\t);\n\t}\n\t//exposed function that allows seller to update orders\n\tfunction updateOrder(\n\t\tuint _id,\n\t\tuint nextState\n\t)\n\tpublic payable{\n\t\t//validate user's input\n\t\trequire(_id <= orderCount && _id > 0, \"order id is invalid.\");\n\t\trequire(uint(State.Exception) >= nextState,\"invalid input state. >\");\n\t\t//get the order.\n\t\tOrder memory _order = orders[_id];\n\t\t//check if caller has permission to edit\n\t\trequire(msg.sender == _order.sellerAddress,\"Only the seller can modify the order status.\");\n\t\t_order.orderStatus = State(nextState);\n\t\t//update order struct in mapping\n\t\torders[_id] = _order;\n\n\t\t//broadcast to listeners that an existing order has been updated.\n\t\temit orderUpdated(\n\t\t\t_id,\n\t\t\t_order.orderStatus\n\t\t);\n\t}\n}",
  "sourcePath": "/home/trickedoutdavid/Desktop/cscicap/Congo/contracts/contracts/contracts/Congo.sol",
  "compiler": {
    "name": "solc",
    "version": "0.5.12+commit.7709ece9.Emscripten.clang"
  },
  "schemaVersion": "3.0.19",
  "updatedAt": "2019-11-16T23:23:04.554Z",
  "devdoc": {
    "methods": {}
  },
  "userdoc": {
    "methods": {}
  }
}