{
  "contractName": "Congo",
  "abi": [
    {
      "constant": true,
      "inputs": [],
      "name": "name",
      "outputs": [
        {
          "name": "",
          "type": "string"
        }
      ],
      "payable": false,
      "stateMutability": "view",
      "type": "function"
    },
    {
      "constant": true,
      "inputs": [],
      "name": "orderCount",
      "outputs": [
        {
          "name": "",
          "type": "uint256"
        }
      ],
      "payable": false,
      "stateMutability": "view",
      "type": "function"
    },
    {
      "constant": true,
      "inputs": [
        {
          "name": "",
          "type": "uint256"
        }
      ],
      "name": "products",
      "outputs": [
        {
          "name": "id",
          "type": "uint256"
        },
        {
          "name": "quantity",
          "type": "uint256"
        },
        {
          "name": "price",
          "type": "uint256"
        },
        {
          "name": "details",
          "type": "string"
        },
        {
          "name": "imageLink",
          "type": "string"
        },
        {
          "name": "name",
          "type": "string"
        },
        {
          "name": "owner",
          "type": "address"
        },
        {
          "name": "sellerContactDetails",
          "type": "string"
        }
      ],
      "payable": false,
      "stateMutability": "view",
      "type": "function"
    },
    {
      "constant": true,
      "inputs": [
        {
          "name": "",
          "type": "uint256"
        }
      ],
      "name": "orders",
      "outputs": [
        {
          "name": "id",
          "type": "uint256"
        },
        {
          "name": "quantity",
          "type": "uint256"
        },
        {
          "name": "prodID",
          "type": "uint256"
        },
        {
          "name": "total",
          "type": "uint256"
        },
        {
          "name": "prodName",
          "type": "string"
        },
        {
          "name": "buyerAddress",
          "type": "address"
        },
        {
          "name": "sellerAddress",
          "type": "address"
        },
        {
          "name": "notes",
          "type": "string"
        },
        {
          "name": "sellerContactDetails",
          "type": "string"
        },
        {
          "name": "buyerContactDetails",
          "type": "string"
        },
        {
          "name": "orderStatus",
          "type": "uint8"
        }
      ],
      "payable": false,
      "stateMutability": "view",
      "type": "function"
    },
    {
      "constant": true,
      "inputs": [],
      "name": "productCount",
      "outputs": [
        {
          "name": "",
          "type": "uint256"
        }
      ],
      "payable": false,
      "stateMutability": "view",
      "type": "function"
    },
    {
      "inputs": [],
      "payable": false,
      "stateMutability": "nonpayable",
      "type": "constructor"
    },
    {
      "anonymous": false,
      "inputs": [
        {
          "indexed": false,
          "name": "id",
          "type": "uint256"
        },
        {
          "indexed": false,
          "name": "quantity",
          "type": "uint256"
        },
        {
          "indexed": false,
          "name": "price",
          "type": "uint256"
        },
        {
          "indexed": false,
          "name": "details",
          "type": "string"
        },
        {
          "indexed": false,
          "name": "imageLink",
          "type": "string"
        },
        {
          "indexed": false,
          "name": "name",
          "type": "string"
        },
        {
          "indexed": false,
          "name": "owner",
          "type": "address"
        },
        {
          "indexed": false,
          "name": "sellerContactDetails",
          "type": "string"
        }
      ],
      "name": "listingCreated",
      "type": "event"
    },
    {
      "anonymous": false,
      "inputs": [
        {
          "indexed": false,
          "name": "id",
          "type": "uint256"
        },
        {
          "indexed": false,
          "name": "quantity",
          "type": "uint256"
        },
        {
          "indexed": false,
          "name": "price",
          "type": "uint256"
        },
        {
          "indexed": false,
          "name": "details",
          "type": "string"
        },
        {
          "indexed": false,
          "name": "imageLink",
          "type": "string"
        },
        {
          "indexed": false,
          "name": "name",
          "type": "string"
        },
        {
          "indexed": false,
          "name": "owner",
          "type": "address"
        },
        {
          "indexed": false,
          "name": "sellerContactDetails",
          "type": "string"
        }
      ],
      "name": "listingUpdated",
      "type": "event"
    },
    {
      "anonymous": false,
      "inputs": [
        {
          "indexed": false,
          "name": "orderID",
          "type": "uint256"
        },
        {
          "indexed": false,
          "name": "orderStatus",
          "type": "uint8"
        }
      ],
      "name": "orderUpdated",
      "type": "event"
    },
    {
      "anonymous": false,
      "inputs": [
        {
          "indexed": false,
          "name": "orderID",
          "type": "uint256"
        },
        {
          "indexed": false,
          "name": "quantity",
          "type": "uint256"
        },
        {
          "indexed": false,
          "name": "prodID",
          "type": "uint256"
        },
        {
          "indexed": false,
          "name": "total",
          "type": "uint256"
        },
        {
          "indexed": false,
          "name": "prodName",
          "type": "string"
        },
        {
          "indexed": false,
          "name": "buyerAddress",
          "type": "address"
        },
        {
          "indexed": false,
          "name": "sellerAddress",
          "type": "address"
        },
        {
          "indexed": false,
          "name": "notes",
          "type": "string"
        },
        {
          "indexed": false,
          "name": "sellerContactDetails",
          "type": "string"
        },
        {
          "indexed": false,
          "name": "buyerContactDetails",
          "type": "string"
        },
        {
          "indexed": false,
          "name": "orderStatus",
          "type": "uint8"
        }
      ],
      "name": "orderCreated",
      "type": "event"
    },
    {
      "constant": false,
      "inputs": [
        {
          "name": "_quantity",
          "type": "uint256"
        },
        {
          "name": "_price",
          "type": "uint256"
        },
        {
          "name": "_details",
          "type": "string"
        },
        {
          "name": "_name",
          "type": "string"
        },
        {
          "name": "_imageLink",
          "type": "string"
        },
        {
          "name": "_sellerContactDetails",
          "type": "string"
        }
      ],
      "name": "createListing",
      "outputs": [],
      "payable": false,
      "stateMutability": "nonpayable",
      "type": "function"
    },
    {
      "constant": false,
      "inputs": [
        {
          "name": "_id",
          "type": "uint256"
        },
        {
          "name": "_quantity",
          "type": "uint256"
        },
        {
          "name": "_price",
          "type": "uint256"
        },
        {
          "name": "_details",
          "type": "string"
        },
        {
          "name": "_name",
          "type": "string"
        },
        {
          "name": "_imageLink",
          "type": "string"
        },
        {
          "name": "_sellerContactDetails",
          "type": "string"
        }
      ],
      "name": "updateListing",
      "outputs": [],
      "payable": true,
      "stateMutability": "payable",
      "type": "function"
    },
    {
      "constant": false,
      "inputs": [
        {
          "name": "_id",
          "type": "uint256"
        },
        {
          "name": "_quantity",
          "type": "uint256"
        },
        {
          "name": "_notes",
          "type": "string"
        },
        {
          "name": "_buyerContactDetails",
          "type": "string"
        }
      ],
      "name": "createOrder",
      "outputs": [],
      "payable": true,
      "stateMutability": "payable",
      "type": "function"
    },
    {
      "constant": false,
      "inputs": [
        {
          "name": "_id",
          "type": "uint256"
        },
        {
          "name": "nextState",
          "type": "uint256"
        }
      ],
      "name": "updateOrder",
      "outputs": [],
      "payable": true,
      "stateMutability": "payable",
      "type": "function"
    }
  ],
  "bytecode": "0x60806040523480156200001157600080fd5b506040518060400160405280600e81526020017f436f6e676f2045786368616e6765000000000000000000000000000000000000815250600090805190602001906200005f92919062000066565b5062000115565b828054600181600116156101000203166002900490600052602060002090601f016020900481019282601f10620000a957805160ff1916838001178555620000da565b82800160010185558215620000da579182015b82811115620000d9578251825591602001919060010190620000bc565b5b509050620000e99190620000ed565b5090565b6200011291905b808211156200010e576000816000905550600101620000f4565b5090565b90565b613f1a80620001256000396000f3fe6080604052600436106100865760003560e01c8063587b71a611610059578063587b71a61461054a5780637acc0b2014610582578063a85c38ef146107c2578063c37c2d5a14610a51578063e0f6ef8714610cf257610086565b806306fdde031461008b5780632453ffa81461011b5780634a4b7e3e14610146578063534e3d21146102ac575b600080fd5b34801561009757600080fd5b506100a0610d1d565b6040518080602001828103825283818151815260200191508051906020019080838360005b838110156100e05780820151818401526020810190506100c5565b50505050905090810190601f16801561010d5780820380516001836020036101000a031916815260200191505b509250505060405180910390f35b34801561012757600080fd5b50610130610dbb565b6040518082815260200191505060405180910390f35b6102aa6004803603608081101561015c57600080fd5b8101908080359060200190929190803590602001909291908035906020019064010000000081111561018d57600080fd5b82018360208201111561019f57600080fd5b803590602001918460018302840111640100000000831117156101c157600080fd5b91908080601f016020809104026020016040519081016040528093929190818152602001838380828437600081840152601f19601f8201169050808301925050505050505091929192908035906020019064010000000081111561022457600080fd5b82018360208201111561023657600080fd5b8035906020019184600183028401116401000000008311171561025857600080fd5b91908080601f016020809104026020016040519081016040528093929190818152602001838380828437600081840152601f19601f820116905080830192505050505050509192919290505050610dc1565b005b610548600480360360e08110156102c257600080fd5b81019080803590602001909291908035906020019092919080359060200190929190803590602001906401000000008111156102fd57600080fd5b82018360208201111561030f57600080fd5b8035906020019184600183028401116401000000008311171561033157600080fd5b91908080601f016020809104026020016040519081016040528093929190818152602001838380828437600081840152601f19601f8201169050808301925050505050505091929192908035906020019064010000000081111561039457600080fd5b8201836020820111156103a657600080fd5b803590602001918460018302840111640100000000831117156103c857600080fd5b91908080601f016020809104026020016040519081016040528093929190818152602001838380828437600081840152601f19601f8201169050808301925050505050505091929192908035906020019064010000000081111561042b57600080fd5b82018360208201111561043d57600080fd5b8035906020019184600183028401116401000000008311171561045f57600080fd5b91908080601f016020809104026020016040519081016040528093929190818152602001838380828437600081840152601f19601f820116905080830192505050505050509192919290803590602001906401000000008111156104c257600080fd5b8201836020820111156104d457600080fd5b803590602001918460018302840111640100000000831117156104f657600080fd5b91908080601f016020809104026020016040519081016040528093929190818152602001838380828437600081840152601f19601f82011690508083019250505050505050919291929050505061188e565b005b6105806004803603604081101561056057600080fd5b8101908080359060200190929190803590602001909291905050506122b4565b005b34801561058e57600080fd5b506105bb600480360360208110156105a557600080fd5b81019080803590602001909291905050506129e5565b604051808981526020018881526020018781526020018060200180602001806020018673ffffffffffffffffffffffffffffffffffffffff1673ffffffffffffffffffffffffffffffffffffffff1681526020018060200185810385528a818151815260200191508051906020019080838360005b8381101561064b578082015181840152602081019050610630565b50505050905090810190601f1680156106785780820380516001836020036101000a031916815260200191505b50858103845289818151815260200191508051906020019080838360005b838110156106b1578082015181840152602081019050610696565b50505050905090810190601f1680156106de5780820380516001836020036101000a031916815260200191505b50858103835288818151815260200191508051906020019080838360005b838110156107175780820151818401526020810190506106fc565b50505050905090810190601f1680156107445780820380516001836020036101000a031916815260200191505b50858103825286818151815260200191508051906020019080838360005b8381101561077d578082015181840152602081019050610762565b50505050905090810190601f1680156107aa5780820380516001836020036101000a031916815260200191505b509c5050505050505050505050505060405180910390f35b3480156107ce57600080fd5b506107fb600480360360208110156107e557600080fd5b8101908080359060200190929190505050612cad565b604051808c81526020018b81526020018a8152602001898152602001806020018873ffffffffffffffffffffffffffffffffffffffff1673ffffffffffffffffffffffffffffffffffffffff1681526020018773ffffffffffffffffffffffffffffffffffffffff1673ffffffffffffffffffffffffffffffffffffffff16815260200180602001806020018060200186600481111561089757fe5b60ff16815260200185810385528c818151815260200191508051906020019080838360005b838110156108d75780820151818401526020810190506108bc565b50505050905090810190601f1680156109045780820380516001836020036101000a031916815260200191505b50858103845289818151815260200191508051906020019080838360005b8381101561093d578082015181840152602081019050610922565b50505050905090810190601f16801561096a5780820380516001836020036101000a031916815260200191505b50858103835288818151815260200191508051906020019080838360005b838110156109a3578082015181840152602081019050610988565b50505050905090810190601f1680156109d05780820380516001836020036101000a031916815260200191505b50858103825287818151815260200191508051906020019080838360005b83811015610a095780820151818401526020810190506109ee565b50505050905090810190601f168015610a365780820380516001836020036101000a031916815260200191505b509f5050505050505050505050505050505060405180910390f35b348015610a5d57600080fd5b50610cf0600480360360c0811015610a7457600080fd5b81019080803590602001909291908035906020019092919080359060200190640100000000811115610aa557600080fd5b820183602082011115610ab757600080fd5b80359060200191846001830284011164010000000083111715610ad957600080fd5b91908080601f016020809104026020016040519081016040528093929190818152602001838380828437600081840152601f19601f82011690508083019250505050505050919291929080359060200190640100000000811115610b3c57600080fd5b820183602082011115610b4e57600080fd5b80359060200191846001830284011164010000000083111715610b7057600080fd5b91908080601f016020809104026020016040519081016040528093929190818152602001838380828437600081840152601f19601f82011690508083019250505050505050919291929080359060200190640100000000811115610bd357600080fd5b820183602082011115610be557600080fd5b80359060200191846001830284011164010000000083111715610c0757600080fd5b91908080601f016020809104026020016040519081016040528093929190818152602001838380828437600081840152601f19601f82011690508083019250505050505050919291929080359060200190640100000000811115610c6a57600080fd5b820183602082011115610c7c57600080fd5b80359060200191846001830284011164010000000083111715610c9e57600080fd5b91908080601f016020809104026020016040519081016040528093929190818152602001838380828437600081840152601f19601f820116905080830192505050505050509192919290505050612fb4565b005b348015610cfe57600080fd5b50610d076135d0565b6040518082815260200191505060405180910390f35b60008054600181600116156101000203166002900480601f016020809104026020016040519081016040528092919081815260200182805460018160011615610100020316600290048015610db35780601f10610d8857610100808354040283529160200191610db3565b820191906000526020600020905b815481529060010190602001808311610d9657829003601f168201915b505050505081565b60025481565b60008311610e1a576040517f08c379a000000000000000000000000000000000000000000000000000000000815260040180806020018281038252602a815260200180613ec5602a913960400191505060405180910390fd5b6001548411158015610e2c5750600084115b610e9e576040517f08c379a00000000000000000000000000000000000000000000000000000000081526004018080602001828103825260168152602001807f70726f6475637420696420697320696e76616c69642e0000000000000000000081525060200191505060405180910390fd5b6000815111610f15576040517f08c379a000000000000000000000000000000000000000000000000000000000815260040180806020018281038252601f8152602001807f427579657220436f6e746163742044657461696c732061726520656d7074790081525060200191505060405180910390fd5b610f1d613c45565b6003600086815260200190815260200160002060405180610100016040529081600082015481526020016001820154815260200160028201548152602001600382018054600181600116156101000203166002900480601f016020809104026020016040519081016040528092919081815260200182805460018160011615610100020316600290048015610ff35780601f10610fc857610100808354040283529160200191610ff3565b820191906000526020600020905b815481529060010190602001808311610fd657829003601f168201915b50505050508152602001600482018054600181600116156101000203166002900480601f0160208091040260200160405190810160405280929190818152602001828054600181600116156101000203166002900480156110955780601f1061106a57610100808354040283529160200191611095565b820191906000526020600020905b81548152906001019060200180831161107857829003601f168201915b50505050508152602001600582018054600181600116156101000203166002900480601f0160208091040260200160405190810160405280929190818152602001828054600181600116156101000203166002900480156111375780601f1061110c57610100808354040283529160200191611137565b820191906000526020600020905b81548152906001019060200180831161111a57829003601f168201915b505050505081526020016006820160009054906101000a900473ffffffffffffffffffffffffffffffffffffffff1673ffffffffffffffffffffffffffffffffffffffff1673ffffffffffffffffffffffffffffffffffffffff168152602001600782018054600181600116156101000203166002900480601f01602080910402602001604051908101604052809291908181526020018280546001816001161561010002031660029004801561122f5780601f106112045761010080835404028352916020019161122f565b820191906000526020600020905b81548152906001019060200180831161121257829003601f168201915b505050505081525050905060008160c0015190506000339050600083602001519050808711156112aa576040517f08c379a000000000000000000000000000000000000000000000000000000000815260040180806020018281038252602c815260200180613dd7602c913960400191505060405180910390fd5b600087856040015102905087820391508373ffffffffffffffffffffffffffffffffffffffff168373ffffffffffffffffffffffffffffffffffffffff16141561133f576040517f08c379a0000000000000000000000000000000000000000000000000000000008152600401808060200182810382526026815260200180613e2a6026913960400191505060405180910390fd5b80341015611398576040517f08c379a0000000000000000000000000000000000000000000000000000000008152600401808060200182810382526023815260200180613e7c6023913960400191505060405180910390fd5b6113a289836135d6565b60026000815480929190600101919050555060405180610160016040528060025481526020018981526020018a81526020018281526020018660a0015181526020018473ffffffffffffffffffffffffffffffffffffffff1681526020018573ffffffffffffffffffffffffffffffffffffffff1681526020018881526020018660e0015181526020018781526020016000600481111561143f57fe5b81525060046000600254815260200190815260200160002060008201518160000155602082015181600101556040820151816002015560608201518160030155608082015181600401908051906020019061149b929190613ca0565b5060a08201518160050160006101000a81548173ffffffffffffffffffffffffffffffffffffffff021916908373ffffffffffffffffffffffffffffffffffffffff16021790555060c08201518160060160006101000a81548173ffffffffffffffffffffffffffffffffffffffff021916908373ffffffffffffffffffffffffffffffffffffffff16021790555060e0820151816007019080519060200190611546929190613ca0565b50610100820151816008019080519060200190611564929190613ca0565b50610120820151816009019080519060200190611582929190613ca0565b5061014082015181600a0160006101000a81548160ff021916908360048111156115a857fe5b02179055509050508373ffffffffffffffffffffffffffffffffffffffff166108fc349081150290604051600060405180830381858888f193505050501580156115f6573d6000803e3d6000fd5b507f222a393215b1913680e04cacf6ab8787ca04ab6a8406b3a507106ed4bbdf9d8d600254898b848960a00151888a8e8d60e001518f6000604051808c81526020018b81526020018a8152602001898152602001806020018873ffffffffffffffffffffffffffffffffffffffff1673ffffffffffffffffffffffffffffffffffffffff1681526020018773ffffffffffffffffffffffffffffffffffffffff1673ffffffffffffffffffffffffffffffffffffffff1681526020018060200180602001806020018660048111156116ca57fe5b60ff16815260200185810385528c818151815260200191508051906020019080838360005b8381101561170a5780820151818401526020810190506116ef565b50505050905090810190601f1680156117375780820380516001836020036101000a031916815260200191505b50858103845289818151815260200191508051906020019080838360005b83811015611770578082015181840152602081019050611755565b50505050905090810190601f16801561179d5780820380516001836020036101000a031916815260200191505b50858103835288818151815260200191508051906020019080838360005b838110156117d65780820151818401526020810190506117bb565b50505050905090810190601f1680156118035780820380516001836020036101000a031916815260200191505b50858103825287818151815260200191508051906020019080838360005b8381101561183c578082015181840152602081019050611821565b50505050905090810190601f1680156118695780820380516001836020036101000a031916815260200191505b509f5050505050505050505050505050505060405180910390a1505050505050505050565b6000835111611905576040517f08c379a000000000000000000000000000000000000000000000000000000000815260040180806020018281038252601d8152602001807f50726f64756374206e616d652063616e6e6f7420626520656d7074792e00000081525060200191505060405180910390fd5b6000851161195e576040517f08c379a0000000000000000000000000000000000000000000000000000000008152600401808060200182810382526027815260200180613e036027913960400191505060405180910390fd5b600086116119b7576040517f08c379a000000000000000000000000000000000000000000000000000000000815260040180806020018281038252602a815260200180613ec5602a913960400191505060405180910390fd5b6000845111611a2e576040517f08c379a00000000000000000000000000000000000000000000000000000000081526004018080602001828103825260198152602001807f50726f647563742044657461696c732061726520656d7074790000000000000081525060200191505060405180910390fd5b6001548711158015611a405750600087115b611ab2576040517f08c379a00000000000000000000000000000000000000000000000000000000081526004018080602001828103825260168152602001807f70726f6475637420696420697320696e76616c69642e0000000000000000000081525060200191505060405180910390fd5b6000815111611b29576040517f08c379a00000000000000000000000000000000000000000000000000000000081526004018080602001828103825260208152602001807f53656c6c657220436f6e746163742044657461696c732061726520656d70747981525060200191505060405180910390fd5b6000825111611ba0576040517f08c379a00000000000000000000000000000000000000000000000000000000081526004018080602001828103825260138152602001807f496d616765204c696e6b20697320656d7074790000000000000000000000000081525060200191505060405180910390fd5b611ba8613c45565b6003600089815260200190815260200160002060405180610100016040529081600082015481526020016001820154815260200160028201548152602001600382018054600181600116156101000203166002900480601f016020809104026020016040519081016040528092919081815260200182805460018160011615610100020316600290048015611c7e5780601f10611c5357610100808354040283529160200191611c7e565b820191906000526020600020905b815481529060010190602001808311611c6157829003601f168201915b50505050508152602001600482018054600181600116156101000203166002900480601f016020809104026020016040519081016040528092919081815260200182805460018160011615610100020316600290048015611d205780601f10611cf557610100808354040283529160200191611d20565b820191906000526020600020905b815481529060010190602001808311611d0357829003601f168201915b50505050508152602001600582018054600181600116156101000203166002900480601f016020809104026020016040519081016040528092919081815260200182805460018160011615610100020316600290048015611dc25780601f10611d9757610100808354040283529160200191611dc2565b820191906000526020600020905b815481529060010190602001808311611da557829003601f168201915b505050505081526020016006820160009054906101000a900473ffffffffffffffffffffffffffffffffffffffff1673ffffffffffffffffffffffffffffffffffffffff1673ffffffffffffffffffffffffffffffffffffffff168152602001600782018054600181600116156101000203166002900480601f016020809104026020016040519081016040528092919081815260200182805460018160011615610100020316600290048015611eba5780601f10611e8f57610100808354040283529160200191611eba565b820191906000526020600020905b815481529060010190602001808311611e9d57829003601f168201915b505050505081525050905060008160c0015190503373ffffffffffffffffffffffffffffffffffffffff168173ffffffffffffffffffffffffffffffffffffffff1614611f52576040517f08c379a0000000000000000000000000000000000000000000000000000000008152600401808060200182810382526026815260200180613e9f6026913960400191505060405180910390fd5b848260a001819052508682604001818152505087826020018181525050858260600181905250838260800181905250828260e0018190525081600360008b81526020019081526020016000206000820151816000015560208201518160010155604082015181600201556060820151816003019080519060200190611fd8929190613ca0565b506080820151816004019080519060200190611ff5929190613ca0565b5060a0820151816005019080519060200190612012929190613ca0565b5060c08201518160060160006101000a81548173ffffffffffffffffffffffffffffffffffffffff021916908373ffffffffffffffffffffffffffffffffffffffff16021790555060e0820151816007019080519060200190612076929190613ca0565b509050507fd7e495504c4d9018ae9d54840e5302471f344fa8731a9ff87d20a40ca5ccac4589898989888a338a604051808981526020018881526020018781526020018060200180602001806020018673ffffffffffffffffffffffffffffffffffffffff1673ffffffffffffffffffffffffffffffffffffffff1681526020018060200185810385528a818151815260200191508051906020019080838360005b83811015612133578082015181840152602081019050612118565b50505050905090810190601f1680156121605780820380516001836020036101000a031916815260200191505b50858103845289818151815260200191508051906020019080838360005b8381101561219957808201518184015260208101905061217e565b50505050905090810190601f1680156121c65780820380516001836020036101000a031916815260200191505b50858103835288818151815260200191508051906020019080838360005b838110156121ff5780820151818401526020810190506121e4565b50505050905090810190601f16801561222c5780820380516001836020036101000a031916815260200191505b50858103825286818151815260200191508051906020019080838360005b8381101561226557808201518184015260208101905061224a565b50505050905090810190601f1680156122925780820380516001836020036101000a031916815260200191505b509c5050505050505050505050505060405180910390a1505050505050505050565b60025482111580156122c65750600082115b612338576040517f08c379a00000000000000000000000000000000000000000000000000000000081526004018080602001828103825260148152602001807f6f7264657220696420697320696e76616c69642e00000000000000000000000081525060200191505060405180910390fd5b8060048081111561234557fe5b10156123b9576040517f08c379a00000000000000000000000000000000000000000000000000000000081526004018080602001828103825260168152602001807f696e76616c696420696e7075742073746174652e203e0000000000000000000081525060200191505060405180910390fd5b6123c1613d20565b600460008481526020019081526020016000206040518061016001604052908160008201548152602001600182015481526020016002820154815260200160038201548152602001600482018054600181600116156101000203166002900480601f0160208091040260200160405190810160405280929190818152602001828054600181600116156101000203166002900480156124a15780601f10612476576101008083540402835291602001916124a1565b820191906000526020600020905b81548152906001019060200180831161248457829003601f168201915b505050505081526020016005820160009054906101000a900473ffffffffffffffffffffffffffffffffffffffff1673ffffffffffffffffffffffffffffffffffffffff1673ffffffffffffffffffffffffffffffffffffffff1681526020016006820160009054906101000a900473ffffffffffffffffffffffffffffffffffffffff1673ffffffffffffffffffffffffffffffffffffffff1673ffffffffffffffffffffffffffffffffffffffff168152602001600782018054600181600116156101000203166002900480601f0160208091040260200160405190810160405280929190818152602001828054600181600116156101000203166002900480156125ef5780601f106125c4576101008083540402835291602001916125ef565b820191906000526020600020905b8154815290600101906020018083116125d257829003601f168201915b50505050508152602001600882018054600181600116156101000203166002900480601f0160208091040260200160405190810160405280929190818152602001828054600181600116156101000203166002900480156126915780601f1061266657610100808354040283529160200191612691565b820191906000526020600020905b81548152906001019060200180831161267457829003601f168201915b50505050508152602001600982018054600181600116156101000203166002900480601f0160208091040260200160405190810160405280929190818152602001828054600181600116156101000203166002900480156127335780601f1061270857610100808354040283529160200191612733565b820191906000526020600020905b81548152906001019060200180831161271657829003601f168201915b50505050508152602001600a820160009054906101000a900460ff16600481111561275a57fe5b600481111561276557fe5b8152505090508060c0015173ffffffffffffffffffffffffffffffffffffffff163373ffffffffffffffffffffffffffffffffffffffff16146127f3576040517f08c379a000000000000000000000000000000000000000000000000000000000815260040180806020018281038252602c815260200180613e50602c913960400191505060405180910390fd5b8160048111156127ff57fe5b816101400190600481111561281057fe5b9081600481111561281d57fe5b815250508060046000858152602001908152602001600020600082015181600001556020820151816001015560408201518160020155606082015181600301556080820151816004019080519060200190612879929190613ca0565b5060a08201518160050160006101000a81548173ffffffffffffffffffffffffffffffffffffffff021916908373ffffffffffffffffffffffffffffffffffffffff16021790555060c08201518160060160006101000a81548173ffffffffffffffffffffffffffffffffffffffff021916908373ffffffffffffffffffffffffffffffffffffffff16021790555060e0820151816007019080519060200190612924929190613ca0565b50610100820151816008019080519060200190612942929190613ca0565b50610120820151816009019080519060200190612960929190613ca0565b5061014082015181600a0160006101000a81548160ff0219169083600481111561298657fe5b02179055509050507f5f1ed4d1c4bd2dbc03f9f80ac9ac30bb73c1d56762781ae27044bb72b5f9970783826101400151604051808381526020018260048111156129cc57fe5b60ff1681526020019250505060405180910390a1505050565b6003602052806000526040600020600091509050806000015490806001015490806002015490806003018054600181600116156101000203166002900480601f016020809104026020016040519081016040528092919081815260200182805460018160011615610100020316600290048015612aa35780601f10612a7857610100808354040283529160200191612aa3565b820191906000526020600020905b815481529060010190602001808311612a8657829003601f168201915b505050505090806004018054600181600116156101000203166002900480601f016020809104026020016040519081016040528092919081815260200182805460018160011615610100020316600290048015612b415780601f10612b1657610100808354040283529160200191612b41565b820191906000526020600020905b815481529060010190602001808311612b2457829003601f168201915b505050505090806005018054600181600116156101000203166002900480601f016020809104026020016040519081016040528092919081815260200182805460018160011615610100020316600290048015612bdf5780601f10612bb457610100808354040283529160200191612bdf565b820191906000526020600020905b815481529060010190602001808311612bc257829003601f168201915b5050505050908060060160009054906101000a900473ffffffffffffffffffffffffffffffffffffffff1690806007018054600181600116156101000203166002900480601f016020809104026020016040519081016040528092919081815260200182805460018160011615610100020316600290048015612ca35780601f10612c7857610100808354040283529160200191612ca3565b820191906000526020600020905b815481529060010190602001808311612c8657829003601f168201915b5050505050905088565b6004602052806000526040600020600091509050806000015490806001015490806002015490806003015490806004018054600181600116156101000203166002900480601f016020809104026020016040519081016040528092919081815260200182805460018160011615610100020316600290048015612d715780601f10612d4657610100808354040283529160200191612d71565b820191906000526020600020905b815481529060010190602001808311612d5457829003601f168201915b5050505050908060050160009054906101000a900473ffffffffffffffffffffffffffffffffffffffff16908060060160009054906101000a900473ffffffffffffffffffffffffffffffffffffffff1690806007018054600181600116156101000203166002900480601f016020809104026020016040519081016040528092919081815260200182805460018160011615610100020316600290048015612e5b5780601f10612e3057610100808354040283529160200191612e5b565b820191906000526020600020905b815481529060010190602001808311612e3e57829003601f168201915b505050505090806008018054600181600116156101000203166002900480601f016020809104026020016040519081016040528092919081815260200182805460018160011615610100020316600290048015612ef95780601f10612ece57610100808354040283529160200191612ef9565b820191906000526020600020905b815481529060010190602001808311612edc57829003601f168201915b505050505090806009018054600181600116156101000203166002900480601f016020809104026020016040519081016040528092919081815260200182805460018160011615610100020316600290048015612f975780601f10612f6c57610100808354040283529160200191612f97565b820191906000526020600020905b815481529060010190602001808311612f7a57829003601f168201915b50505050509080600a0160009054906101000a900460ff1690508b565b600083511161302b576040517f08c379a000000000000000000000000000000000000000000000000000000000815260040180806020018281038252601d8152602001807f50726f64756374206e616d652063616e6e6f7420626520656d7074792e00000081525060200191505060405180910390fd5b60008511613084576040517f08c379a0000000000000000000000000000000000000000000000000000000008152600401808060200182810382526027815260200180613e036027913960400191505060405180910390fd5b600086116130dd576040517f08c379a000000000000000000000000000000000000000000000000000000000815260040180806020018281038252602a815260200180613ec5602a913960400191505060405180910390fd5b6000845111613154576040517f08c379a00000000000000000000000000000000000000000000000000000000081526004018080602001828103825260198152602001807f50726f647563742044657461696c732061726520656d7074790000000000000081525060200191505060405180910390fd5b60008151116131cb576040517f08c379a00000000000000000000000000000000000000000000000000000000081526004018080602001828103825260208152602001807f53656c6c657220436f6e746163742044657461696c732061726520656d70747981525060200191505060405180910390fd5b6000825111613242576040517f08c379a00000000000000000000000000000000000000000000000000000000081526004018080602001828103825260138152602001807f496d616765204c696e6b20697320656d7074790000000000000000000000000081525060200191505060405180910390fd5b60016000815480929190600101919050555060405180610100016040528060015481526020018781526020018681526020018581526020018481526020018381526020013373ffffffffffffffffffffffffffffffffffffffff1681526020018281525060036000600154815260200190815260200160002060008201518160000155602082015181600101556040820151816002015560608201518160030190805190602001906132f5929190613ca0565b506080820151816004019080519060200190613312929190613ca0565b5060a082015181600501908051906020019061332f929190613ca0565b5060c08201518160060160006101000a81548173ffffffffffffffffffffffffffffffffffffffff021916908373ffffffffffffffffffffffffffffffffffffffff16021790555060e0820151816007019080519060200190613393929190613ca0565b509050507f3d066cecd9e38b6727c3e1db2a27bc098ecd639a5d3c5c41ddd58231c538601860015487878787873388604051808981526020018881526020018781526020018060200180602001806020018673ffffffffffffffffffffffffffffffffffffffff1673ffffffffffffffffffffffffffffffffffffffff1681526020018060200185810385528a818151815260200191508051906020019080838360005b83811015613452578082015181840152602081019050613437565b50505050905090810190601f16801561347f5780820380516001836020036101000a031916815260200191505b50858103845289818151815260200191508051906020019080838360005b838110156134b857808201518184015260208101905061349d565b50505050905090810190601f1680156134e55780820380516001836020036101000a031916815260200191505b50858103835288818151815260200191508051906020019080838360005b8381101561351e578082015181840152602081019050613503565b50505050905090810190601f16801561354b5780820380516001836020036101000a031916815260200191505b50858103825286818151815260200191508051906020019080838360005b83811015613584578082015181840152602081019050613569565b50505050905090810190601f1680156135b15780820380516001836020036101000a031916815260200191505b509c5050505050505050505050505060405180910390a1505050505050565b60015481565b6135de613c45565b6003600084815260200190815260200160002060405180610100016040529081600082015481526020016001820154815260200160028201548152602001600382018054600181600116156101000203166002900480601f0160208091040260200160405190810160405280929190818152602001828054600181600116156101000203166002900480156136b45780601f10613689576101008083540402835291602001916136b4565b820191906000526020600020905b81548152906001019060200180831161369757829003601f168201915b50505050508152602001600482018054600181600116156101000203166002900480601f0160208091040260200160405190810160405280929190818152602001828054600181600116156101000203166002900480156137565780601f1061372b57610100808354040283529160200191613756565b820191906000526020600020905b81548152906001019060200180831161373957829003601f168201915b50505050508152602001600582018054600181600116156101000203166002900480601f0160208091040260200160405190810160405280929190818152602001828054600181600116156101000203166002900480156137f85780601f106137cd576101008083540402835291602001916137f8565b820191906000526020600020905b8154815290600101906020018083116137db57829003601f168201915b505050505081526020016006820160009054906101000a900473ffffffffffffffffffffffffffffffffffffffff1673ffffffffffffffffffffffffffffffffffffffff1673ffffffffffffffffffffffffffffffffffffffff168152602001600782018054600181600116156101000203166002900480601f0160208091040260200160405190810160405280929190818152602001828054600181600116156101000203166002900480156138f05780601f106138c5576101008083540402835291602001916138f0565b820191906000526020600020905b8154815290600101906020018083116138d357829003601f168201915b50505050508152505090508181602001818152505080600360008581526020019081526020016000206000820151816000015560208201518160010155604082015181600201556060820151816003019080519060200190613953929190613ca0565b506080820151816004019080519060200190613970929190613ca0565b5060a082015181600501908051906020019061398d929190613ca0565b5060c08201518160060160006101000a81548173ffffffffffffffffffffffffffffffffffffffff021916908373ffffffffffffffffffffffffffffffffffffffff16021790555060e08201518160070190805190602001906139f1929190613ca0565b509050507fd7e495504c4d9018ae9d54840e5302471f344fa8731a9ff87d20a40ca5ccac458382602001518360400151846060015185608001518660a001518760c001518860e00151604051808981526020018881526020018781526020018060200180602001806020018673ffffffffffffffffffffffffffffffffffffffff1673ffffffffffffffffffffffffffffffffffffffff1681526020018060200185810385528a818151815260200191508051906020019080838360005b83811015613aca578082015181840152602081019050613aaf565b50505050905090810190601f168015613af75780820380516001836020036101000a031916815260200191505b50858103845289818151815260200191508051906020019080838360005b83811015613b30578082015181840152602081019050613b15565b50505050905090810190601f168015613b5d5780820380516001836020036101000a031916815260200191505b50858103835288818151815260200191508051906020019080838360005b83811015613b96578082015181840152602081019050613b7b565b50505050905090810190601f168015613bc35780820380516001836020036101000a031916815260200191505b50858103825286818151815260200191508051906020019080838360005b83811015613bfc578082015181840152602081019050613be1565b50505050905090810190601f168015613c295780820380516001836020036101000a031916815260200191505b509c5050505050505050505050505060405180910390a1505050565b604051806101000160405280600081526020016000815260200160008152602001606081526020016060815260200160608152602001600073ffffffffffffffffffffffffffffffffffffffff168152602001606081525090565b828054600181600116156101000203166002900490600052602060002090601f016020900481019282601f10613ce157805160ff1916838001178555613d0f565b82800160010185558215613d0f579182015b82811115613d0e578251825591602001919060010190613cf3565b5b509050613d1c9190613db1565b5090565b6040518061016001604052806000815260200160008152602001600081526020016000815260200160608152602001600073ffffffffffffffffffffffffffffffffffffffff168152602001600073ffffffffffffffffffffffffffffffffffffffff16815260200160608152602001606081526020016060815260200160006004811115613dab57fe5b81525090565b613dd391905b80821115613dcf576000816000905550600101613db7565b5090565b9056fe5075726368617365205175616e74697479206578636565647320417661696c61626c65205175616e7469747950726f64756374205072696365206d7573742062652067726561746572207468616e207a65726f596f752063616e6e6f7420707572636861736520796f7572206f776e2070726f64756374732e4f6e6c79207468652073656c6c65722063616e206d6f6469667920746865206f72646572207374617475732e4e6f7420656e6f75676820746f20636f7665722074686520746f74616c20636f73742e596f7520617265206e6f7420746865206f776e6572206f662074686973206c697374696e672e50726f64756374205175616e74697479206d7573742062652067726561746572207468616e207a65726fa165627a7a72305820ca4af2022117d40188f4d3e0ee5220549141331661b4fdccfadc6973eb92e4cf0029",
  "source": "pragma solidity ^0.5.0;\n\ncontract Congo {\n\tstring public name;\n\tuint public productCount;\n\tuint public orderCount;\n\tenum State {Listed,Processing,Shipped,Complete,Exception}\n\tmapping(uint => Product) public products;\n\tmapping(uint => Order) public orders;\n\n\tstruct Order{\n\t\tuint id;\n\t\tuint quantity;\n\t\tuint prodID;\n\t\tuint256 total;\n\t\tstring prodName;\n\t\taddress payable buyerAddress;\n\t\taddress payable sellerAddress;\n\t\tstring notes;\n\t\tstring sellerContactDetails;\n\t\tstring buyerContactDetails;\n\t\tState orderStatus;\n\n\t}\n\tstruct Product{\n\t\tuint id;\n\t\tuint quantity;\n\t\tuint256 price;\n\t\tstring details;\n\t\tstring imageLink;\n\t\tstring name;\n\t\taddress payable owner;\n\t\tstring sellerContactDetails;\n\t}\n\t//event to be emitted when a new product is listed.\n\tevent listingCreated(\n\t\tuint id,\n\t\tuint quantity,\n\t\tuint256 price,\n\t\tstring details,\n\t\tstring imageLink,\n\t\tstring name,\n\t\taddress payable owner,\n\t\tstring sellerContactDetails\n\t);\n\t//event to be emitted when a listing is updated.\n\tevent listingUpdated(\n\t\tuint id,\n\t\tuint quantity,\n\t\tuint256 price,\n\t\tstring details,\n\t\tstring imageLink,\n\t\tstring name,\n\t\taddress payable owner,\n\t\tstring sellerContactDetails\n\t);\n\t//event to be emitted when an order is updated.\n\tevent orderUpdated(\n\t\tuint orderID,\n\t\tState orderStatus\n\t);\n\t//emit that an order has been created between the two parties\n\tevent orderCreated(\n\t\tuint orderID,\n\t\tuint quantity,\n\t\tuint prodID,\n\t\tuint256 total,\n\t\tstring prodName,\n\t\taddress payable buyerAddress,\n\t\taddress payable sellerAddress,\n\t\tstring notes,\n\t\tstring sellerContactDetails,\n\t\tstring buyerContactDetails,\n\t\tState orderStatus\n\t);\n\tconstructor() public {\n\t\tname = \"Congo Exchange\";\n\t}\n\t//exposed function that lists a product.\n\tfunction createListing(\n\t\tuint _quantity,\n\t\tuint256 _price,\n\t\tstring memory _details,\n\t\tstring memory _name,\n\t\tstring memory _imageLink,\n\t\tstring memory _sellerContactDetails\n\t)\n\tpublic {\n\t\t//validate user's input\n\t\trequire(bytes(_name).length > 0,\"Product name cannot be empty.\");\n\t\trequire(_price > 0, \"Product Price must be greater than zero\");\n\t\trequire(_quantity > 0, \"Product Quantity must be greater than zero\");\n\t\trequire(bytes(_details).length > 0, \"Product Details are empty\");\n\t\trequire(bytes(_sellerContactDetails).length > 0, \"Seller Contact Details are empty\");\n\t\trequire(bytes(_imageLink).length > 0, \"Image Link is empty\");\n\t\tproductCount++;\n\t\t//using product count as an id for now.\n\t\tproducts[productCount] = Product(\n\t\t\tproductCount,\n\t\t\t_quantity,\n\t\t\t_price,\n\t\t\t_details,\n\t\t\t_name,\n\t\t\t_imageLink,\n\t\t\tmsg.sender,\n\t\t\t_sellerContactDetails\n\t\t);\n\t\t//broadcast to listeners that a new item has been listed.\n\t\temit listingCreated(\n\t\t\tproductCount,\n\t\t\t_quantity,\n\t\t\t_price,\n\t\t\t_details,\n\t\t\t_name,\n\t\t\t_imageLink,\n\t\t\tmsg.sender,\n\t\t\t_sellerContactDetails\n\t\t);\n\n\t}\n\t//update listing quantity when order is created and paid for.\n\tfunction updateQuantity(\n\t\tuint _id,\n\t\tuint _newQuantity\n\t)\n\tinternal{\n\t\t//get the product.\n\t\tProduct memory listing = products[_id];\n\t\tlisting.quantity = _newQuantity;\n\t\tproducts[_id] = listing;\n\t\temit listingUpdated(\n\t\t\t_id,\n\t\t\tlisting.quantity,\n\t\t\tlisting.price,\n\t\t\tlisting.details,\n\t\t\tlisting.imageLink,\n\t\t\tlisting.name,\n\t\t\tlisting.owner,\n\t\t\tlisting.sellerContactDetails\n\t\t);\n\t}\n\t//exposed function updates a listing.\n\tfunction updateListing(\n\t\tuint _id,\n\t\tuint _quantity,\n\t\tuint256 _price,\n\t\tstring memory _details,\n\t\tstring memory _name,\n\t\tstring memory _imageLink,\n\t\tstring memory _sellerContactDetails\n\t)\n\tpublic payable{\n\t\t//validate user's input\n\t\trequire(bytes(_name).length > 0,\"Product name cannot be empty.\");\n\t\trequire(_price > 0, \"Product Price must be greater than zero\");\n\t\trequire(_quantity > 0, \"Product Quantity must be greater than zero\");\n\t\trequire(bytes(_details).length > 0, \"Product Details are empty\");\n\t\trequire(_id <= productCount && _id > 0, \"product id is invalid.\");\n\t\trequire(bytes(_sellerContactDetails).length > 0, \"Seller Contact Details are empty\");\n\t\trequire(bytes(_imageLink).length > 0, \"Image Link is empty\");\n\t\t//fetch the product.\n\t\tProduct memory _currentStateOfListing = products[_id];\n\n\t\t//compare if caller's address is the owner of this product.\n\t\taddress payable productOwner = _currentStateOfListing.owner;\n\t\trequire(productOwner == msg.sender, \"You are not the owner of this listing.\");\n\n\t\t//update the listing with new data.\n\t\t_currentStateOfListing.name = _name;\n\t\t_currentStateOfListing.price = _price;\n\t\t_currentStateOfListing.quantity = _quantity;\n\t\t_currentStateOfListing.details = _details;\n\t\t_currentStateOfListing.imageLink = _imageLink;\n\t\t_currentStateOfListing.sellerContactDetails = _sellerContactDetails;\n\n\t\t//update mapping on network\n\t\tproducts[_id] = _currentStateOfListing;\n\n\t\t//broadcast to listeners that an existing product has been updated.\n\t\temit listingUpdated(\n\t\t\t_id,\n\t\t\t_quantity,\n\t\t\t_price,\n\t\t\t_details,\n\t\t\t_imageLink,\n\t\t\t_name,\n\t\t\tmsg.sender,\n\t\t\t_sellerContactDetails\n\t\t);\n\n\t}\n\n\t//exposed function that allows user to purchase products\n\tfunction createOrder(\n\t\tuint _id,\n\t\tuint _quantity,\n\t\tstring memory _notes,\n\t\tstring memory _buyerContactDetails\n\t)\n\tpublic payable{\n\t\t//validate user's input\n\t\trequire(_quantity > 0, \"Product Quantity must be greater than zero\");\n\t\trequire(_id <= productCount && _id > 0, \"product id is invalid.\");\n\t\trequire(bytes(_buyerContactDetails).length > 0, \"Buyer Contact Details are empty\");\n\n\t\t//get the product.\n\t\tProduct memory _listing = products[_id];\n\t\taddress payable seller = _listing.owner;\n\t\taddress payable buyer = msg.sender;\n\t\tuint quantityRemaining = _listing.quantity;\n\t\trequire(_quantity <= quantityRemaining,\"Purchase Quantity exceeds Available Quantity\");\n\t\tuint256 orderTotal = _listing.price * _quantity;\n\t\tquantityRemaining = quantityRemaining - _quantity;\n\t\t//make sure buyer is not seller.\n\t\trequire(buyer != seller, \"You cannot purchase your own products.\");\n\t\t//make sure payment is sufficient.\n\t\trequire(msg.value >= orderTotal, \"Not enough to cover the total cost.\");\n\n\t\t//update the listing quantity.\n\t\tupdateQuantity(_id,quantityRemaining);\n\t\t//create a new order!\n\t\torderCount++;\n\t\torders[orderCount] = Order(\n\t\t\torderCount,\n\t\t\t_quantity,\n\t\t\t_id,\n\t\t\torderTotal,\n\t\t\t_listing.name,\n\t\t\tbuyer,\n\t\t\tseller,\n\t\t\t_notes,\n\t\t\t_listing.sellerContactDetails,\n\t\t\t_buyerContactDetails,\n\t\t\tState.Listed\n\t\t);\n\t\t//transfer value.\n\t\taddress(seller).transfer(msg.value);\n\t\t//broadcast to listeners that an existing product has been updated.\n\t\temit orderCreated(\n\t\t\torderCount,\n\t\t\t_quantity,\n\t\t\t_id,\n\t\t\torderTotal,\n\t\t\t_listing.name,\n\t\t\tbuyer,\n\t\t\tseller,\n\t\t\t_notes,\n\t\t\t_listing.sellerContactDetails,\n\t\t\t_buyerContactDetails,\n\t\t\tState.Listed\n\t\t);\n\t}\n\t//exposed function that allows seller to update orders\n\tfunction updateOrder(\n\t\tuint _id,\n\t\tuint nextState\n\t)\n\tpublic payable{\n\t\t//validate user's input\n\t\trequire(_id <= orderCount && _id > 0, \"order id is invalid.\");\n\t\trequire(uint(State.Exception) >= nextState,\"invalid input state. >\");\n\t\t//get the order.\n\t\tOrder memory _order = orders[_id];\n\t\t//check if caller has permission to edit\n\t\trequire(msg.sender == _order.sellerAddress,\"Only the seller can modify the order status.\");\n\t\t_order.orderStatus = State(nextState);\n\t\t//update order struct in mapping\n\t\torders[_id] = _order;\n\n\t\t//broadcast to listeners that an existing order has been updated.\n\t\temit orderUpdated(\n\t\t\t_id,\n\t\t\t_order.orderStatus\n\t\t);\n\t}\n}",
  "sourcePath": "/Users/karkay/Congo/contracts/contracts/contracts/Congo.sol",
  "compiler": {
    "name": "solc",
    "version": "0.5.8+commit.23d335f2.Emscripten.clang"
  },
  "schemaVersion": "3.0.16",
  "updatedAt": "2019-11-21T23:25:33.976Z",
  "devdoc": {
    "methods": {}
  },
  "userdoc": {
    "methods": {}
  }
}