{
  "contractName": "Congo",
  "abi": [
    {
      "constant": true,
      "inputs": [],
      "name": "name",
      "outputs": [
        {
          "name": "",
          "type": "string"
        }
      ],
      "payable": false,
      "stateMutability": "view",
      "type": "function"
    },
    {
      "constant": true,
      "inputs": [
        {
          "name": "",
          "type": "uint256"
        }
      ],
      "name": "products",
      "outputs": [
        {
          "name": "id",
          "type": "uint256"
        },
        {
          "name": "quantity",
          "type": "uint256"
        },
        {
          "name": "price",
          "type": "uint256"
        },
        {
          "name": "details",
          "type": "string"
        },
        {
          "name": "name",
          "type": "string"
        },
        {
          "name": "owner",
          "type": "address"
        }
      ],
      "payable": false,
      "stateMutability": "view",
      "type": "function"
    },
    {
      "constant": true,
      "inputs": [],
      "name": "productCount",
      "outputs": [
        {
          "name": "",
          "type": "uint256"
        }
      ],
      "payable": false,
      "stateMutability": "view",
      "type": "function"
    },
    {
      "inputs": [],
      "payable": false,
      "stateMutability": "nonpayable",
      "type": "constructor"
    },
    {
      "anonymous": false,
      "inputs": [
        {
          "indexed": false,
          "name": "id",
          "type": "uint256"
        },
        {
          "indexed": false,
          "name": "quantity",
          "type": "uint256"
        },
        {
          "indexed": false,
          "name": "price",
          "type": "uint256"
        },
        {
          "indexed": false,
          "name": "details",
          "type": "string"
        },
        {
          "indexed": false,
          "name": "name",
          "type": "string"
        },
        {
          "indexed": false,
          "name": "owner",
          "type": "address"
        }
      ],
      "name": "listingCreated",
      "type": "event"
    },
    {
      "anonymous": false,
      "inputs": [
        {
          "indexed": false,
          "name": "id",
          "type": "uint256"
        },
        {
          "indexed": false,
          "name": "quantity",
          "type": "uint256"
        },
        {
          "indexed": false,
          "name": "price",
          "type": "uint256"
        },
        {
          "indexed": false,
          "name": "details",
          "type": "string"
        },
        {
          "indexed": false,
          "name": "name",
          "type": "string"
        },
        {
          "indexed": false,
          "name": "owner",
          "type": "address"
        }
      ],
      "name": "listingUpdated",
      "type": "event"
    },
    {
      "anonymous": false,
      "inputs": [
        {
          "indexed": false,
          "name": "id",
          "type": "uint256"
        },
        {
          "indexed": false,
          "name": "quantity",
          "type": "uint256"
        },
        {
          "indexed": false,
          "name": "price",
          "type": "uint256"
        },
        {
          "indexed": false,
          "name": "details",
          "type": "string"
        },
        {
          "indexed": false,
          "name": "name",
          "type": "string"
        },
        {
          "indexed": false,
          "name": "owner",
          "type": "address"
        }
      ],
      "name": "orderUpdated",
      "type": "event"
    },
    {
      "anonymous": false,
      "inputs": [
        {
          "indexed": false,
          "name": "id",
          "type": "uint256"
        },
        {
          "indexed": false,
          "name": "quantity",
          "type": "uint256"
        },
        {
          "indexed": false,
          "name": "buyer",
          "type": "address"
        },
        {
          "indexed": false,
          "name": "seller",
          "type": "address"
        }
      ],
      "name": "orderCreated",
      "type": "event"
    },
    {
      "constant": false,
      "inputs": [
        {
          "name": "_quantity",
          "type": "uint256"
        },
        {
          "name": "_price",
          "type": "uint256"
        },
        {
          "name": "_details",
          "type": "string"
        },
        {
          "name": "_name",
          "type": "string"
        }
      ],
      "name": "createListing",
      "outputs": [],
      "payable": false,
      "stateMutability": "nonpayable",
      "type": "function"
    },
    {
      "constant": false,
      "inputs": [
        {
          "name": "_id",
          "type": "uint256"
        },
        {
          "name": "_quantity",
          "type": "uint256"
        },
        {
          "name": "_price",
          "type": "uint256"
        },
        {
          "name": "_details",
          "type": "string"
        },
        {
          "name": "_name",
          "type": "string"
        }
      ],
      "name": "updateListing",
      "outputs": [],
      "payable": true,
      "stateMutability": "payable",
      "type": "function"
    },
    {
      "constant": false,
      "inputs": [
        {
          "name": "_id",
          "type": "uint256"
        },
        {
          "name": "_quantity",
          "type": "uint256"
        }
      ],
      "name": "purchaseProduct",
      "outputs": [],
      "payable": true,
      "stateMutability": "payable",
      "type": "function"
    }
  ],
  "bytecode": "0x60806040523480156200001157600080fd5b506040518060400160405280600e81526020017f436f6e676f2045786368616e6765000000000000000000000000000000000000815250600090805190602001906200005f92919062000066565b5062000115565b828054600181600116156101000203166002900490600052602060002090601f016020900481019282601f10620000a957805160ff1916838001178555620000da565b82800160010185558215620000da579182015b82811115620000d9578251825591602001919060010190620000bc565b5b509050620000e99190620000ed565b5090565b6200011291905b808211156200010e576000816000905550600101620000f4565b5090565b90565b61193780620001256000396000f3fe6080604052600436106100555760003560e01c806306fdde031461005a5780637302bd6e146100ea5780637acc0b201461025a5780638ccc03ca146103c2578063a044042614610535578063e0f6ef871461056d575b600080fd5b34801561006657600080fd5b5061006f610598565b6040518080602001828103825283818151815260200191508051906020019080838360005b838110156100af578082015181840152602081019050610094565b50505050905090810190601f1680156100dc5780820380516001836020036101000a031916815260200191505b509250505060405180910390f35b610258600480360360a081101561010057600080fd5b810190808035906020019092919080359060200190929190803590602001909291908035906020019064010000000081111561013b57600080fd5b82018360208201111561014d57600080fd5b8035906020019184600183028401116401000000008311171561016f57600080fd5b91908080601f016020809104026020016040519081016040528093929190818152602001838380828437600081840152601f19601f820116905080830192505050505050509192919290803590602001906401000000008111156101d257600080fd5b8201836020820111156101e457600080fd5b8035906020019184600183028401116401000000008311171561020657600080fd5b91908080601f016020809104026020016040519081016040528093929190818152602001838380828437600081840152601f19601f820116905080830192505050505050509192919290505050610636565b005b34801561026657600080fd5b506102936004803603602081101561027d57600080fd5b8101908080359060200190929190505050610d01565b6040518087815260200186815260200185815260200180602001806020018473ffffffffffffffffffffffffffffffffffffffff1673ffffffffffffffffffffffffffffffffffffffff168152602001838103835286818151815260200191508051906020019080838360005b8381101561031b578082015181840152602081019050610300565b50505050905090810190601f1680156103485780820380516001836020036101000a031916815260200191505b50838103825285818151815260200191508051906020019080838360005b83811015610381578082015181840152602081019050610366565b50505050905090810190601f1680156103ae5780820380516001836020036101000a031916815260200191505b509850505050505050505060405180910390f35b3480156103ce57600080fd5b50610533600480360360808110156103e557600080fd5b8101908080359060200190929190803590602001909291908035906020019064010000000081111561041657600080fd5b82018360208201111561042857600080fd5b8035906020019184600183028401116401000000008311171561044a57600080fd5b91908080601f016020809104026020016040519081016040528093929190818152602001838380828437600081840152601f19601f820116905080830192505050505050509192919290803590602001906401000000008111156104ad57600080fd5b8201836020820111156104bf57600080fd5b803590602001918460018302840111640100000000831117156104e157600080fd5b91908080601f016020809104026020016040519081016040528093929190818152602001838380828437600081840152601f19601f820116905080830192505050505050509192919290505050610e8d565b005b61056b6004803603604081101561054b57600080fd5b810190808035906020019092919080359060200190929190505050611298565b005b34801561057957600080fd5b50610582611754565b6040518082815260200191505060405180910390f35b60008054600181600116156101000203166002900480601f01602080910402602001604051908101604052809291908181526020018280546001816001161561010002031660029004801561062e5780601f106106035761010080835404028352916020019161062e565b820191906000526020600020905b81548152906001019060200180831161061157829003601f168201915b505050505081565b60008151116106ad576040517f08c379a000000000000000000000000000000000000000000000000000000000815260040180806020018281038252601d8152602001807f50726f64756374206e616d652063616e6e6f7420626520656d7074792e00000081525060200191505060405180910390fd5b60008311610706576040517f08c379a000000000000000000000000000000000000000000000000000000000815260040180806020018281038252602781526020018061184c6027913960400191505060405180910390fd5b6000841161075f576040517f08c379a000000000000000000000000000000000000000000000000000000000815260040180806020018281038252602a8152602001806118e2602a913960400191505060405180910390fd5b60008251116107d6576040517f08c379a00000000000000000000000000000000000000000000000000000000081526004018080602001828103825260198152602001807f50726f647563742044657461696c732061726520656d7074790000000000000081525060200191505060405180910390fd5b60015485111580156107e85750600085115b61085a576040517f08c379a00000000000000000000000000000000000000000000000000000000081526004018080602001828103825260168152602001807f70726f6475637420696420697320696e76616c69642e0000000000000000000081525060200191505060405180910390fd5b61086261175a565b600260008781526020019081526020016000206040518060c0016040529081600082015481526020016001820154815260200160028201548152602001600382018054600181600116156101000203166002900480601f0160208091040260200160405190810160405280929190818152602001828054600181600116156101000203166002900480156109375780601f1061090c57610100808354040283529160200191610937565b820191906000526020600020905b81548152906001019060200180831161091a57829003601f168201915b50505050508152602001600482018054600181600116156101000203166002900480601f0160208091040260200160405190810160405280929190818152602001828054600181600116156101000203166002900480156109d95780601f106109ae576101008083540402835291602001916109d9565b820191906000526020600020905b8154815290600101906020018083116109bc57829003601f168201915b505050505081526020016005820160009054906101000a900473ffffffffffffffffffffffffffffffffffffffff1673ffffffffffffffffffffffffffffffffffffffff1673ffffffffffffffffffffffffffffffffffffffff1681525050905060008160a0015190503373ffffffffffffffffffffffffffffffffffffffff168173ffffffffffffffffffffffffffffffffffffffff1614610ac7576040517f08c379a00000000000000000000000000000000000000000000000000000000081526004018080602001828103825260268152602001806118bc6026913960400191505060405180910390fd5b828260800181905250848260400181815250508582602001818152505083826060018190525081600260008981526020019081526020016000206000820151816000015560208201518160010155604082015181600201556060820151816003019080519060200190610b3b9291906117a6565b506080820151816004019080519060200190610b589291906117a6565b5060a08201518160050160006101000a81548173ffffffffffffffffffffffffffffffffffffffff021916908373ffffffffffffffffffffffffffffffffffffffff1602179055509050507f2ad05b9a6b53fefdb3fd284642a7d3e88748b46a257ba436b92ccedbf2a4c89f8787878787336040518087815260200186815260200185815260200180602001806020018473ffffffffffffffffffffffffffffffffffffffff1673ffffffffffffffffffffffffffffffffffffffff168152602001838103835286818151815260200191508051906020019080838360005b83811015610c52578082015181840152602081019050610c37565b50505050905090810190601f168015610c7f5780820380516001836020036101000a031916815260200191505b50838103825285818151815260200191508051906020019080838360005b83811015610cb8578082015181840152602081019050610c9d565b50505050905090810190601f168015610ce55780820380516001836020036101000a031916815260200191505b509850505050505050505060405180910390a150505050505050565b6002602052806000526040600020600091509050806000015490806001015490806002015490806003018054600181600116156101000203166002900480601f016020809104026020016040519081016040528092919081815260200182805460018160011615610100020316600290048015610dbf5780601f10610d9457610100808354040283529160200191610dbf565b820191906000526020600020905b815481529060010190602001808311610da257829003601f168201915b505050505090806004018054600181600116156101000203166002900480601f016020809104026020016040519081016040528092919081815260200182805460018160011615610100020316600290048015610e5d5780601f10610e3257610100808354040283529160200191610e5d565b820191906000526020600020905b815481529060010190602001808311610e4057829003601f168201915b5050505050908060050160009054906101000a900473ffffffffffffffffffffffffffffffffffffffff16905086565b6000815111610f04576040517f08c379a000000000000000000000000000000000000000000000000000000000815260040180806020018281038252601d8152602001807f50726f64756374206e616d652063616e6e6f7420626520656d7074792e00000081525060200191505060405180910390fd5b60008311610f5d576040517f08c379a000000000000000000000000000000000000000000000000000000000815260040180806020018281038252602781526020018061184c6027913960400191505060405180910390fd5b60008411610fb6576040517f08c379a000000000000000000000000000000000000000000000000000000000815260040180806020018281038252602a8152602001806118e2602a913960400191505060405180910390fd5b600082511161102d576040517f08c379a00000000000000000000000000000000000000000000000000000000081526004018080602001828103825260198152602001807f50726f647563742044657461696c732061726520656d7074790000000000000081525060200191505060405180910390fd5b6001600081548092919060010191905055506040518060c0016040528060015481526020018581526020018481526020018381526020018281526020013373ffffffffffffffffffffffffffffffffffffffff1681525060026000600154815260200190815260200160002060008201518160000155602082015181600101556040820151816002015560608201518160030190805190602001906110d39291906117a6565b5060808201518160040190805190602001906110f09291906117a6565b5060a08201518160050160006101000a81548173ffffffffffffffffffffffffffffffffffffffff021916908373ffffffffffffffffffffffffffffffffffffffff1602179055509050507f91c25cba591450f790c7dea430fa140068b856eae53fb712c13034e72f9b94eb60015485858585336040518087815260200186815260200185815260200180602001806020018473ffffffffffffffffffffffffffffffffffffffff1673ffffffffffffffffffffffffffffffffffffffff168152602001838103835286818151815260200191508051906020019080838360005b838110156111ec5780820151818401526020810190506111d1565b50505050905090810190601f1680156112195780820380516001836020036101000a031916815260200191505b50838103825285818151815260200191508051906020019080838360005b83811015611252578082015181840152602081019050611237565b50505050905090810190601f16801561127f5780820380516001836020036101000a031916815260200191505b509850505050505050505060405180910390a150505050565b600081116112f1576040517f08c379a000000000000000000000000000000000000000000000000000000000815260040180806020018281038252602a8152602001806118e2602a913960400191505060405180910390fd5b60015482111580156113035750600082115b611375576040517f08c379a00000000000000000000000000000000000000000000000000000000081526004018080602001828103825260168152602001807f70726f6475637420696420697320696e76616c69642e0000000000000000000081525060200191505060405180910390fd5b61137d61175a565b600260008481526020019081526020016000206040518060c0016040529081600082015481526020016001820154815260200160028201548152602001600382018054600181600116156101000203166002900480601f0160208091040260200160405190810160405280929190818152602001828054600181600116156101000203166002900480156114525780601f1061142757610100808354040283529160200191611452565b820191906000526020600020905b81548152906001019060200180831161143557829003601f168201915b50505050508152602001600482018054600181600116156101000203166002900480601f0160208091040260200160405190810160405280929190818152602001828054600181600116156101000203166002900480156114f45780601f106114c9576101008083540402835291602001916114f4565b820191906000526020600020905b8154815290600101906020018083116114d757829003601f168201915b505050505081526020016005820160009054906101000a900473ffffffffffffffffffffffffffffffffffffffff1673ffffffffffffffffffffffffffffffffffffffff1673ffffffffffffffffffffffffffffffffffffffff1681525050905060008160a001519050600033905060008484604001510290508273ffffffffffffffffffffffffffffffffffffffff168273ffffffffffffffffffffffffffffffffffffffff1614156115f3576040517f08c379a00000000000000000000000000000000000000000000000000000000081526004018080602001828103825260268152602001806118736026913960400191505060405180910390fd5b8034101561164c576040517f08c379a00000000000000000000000000000000000000000000000000000000081526004018080602001828103825260238152602001806118996023913960400191505060405180910390fd5b848460200151038460200181815250508273ffffffffffffffffffffffffffffffffffffffff166108fc349081150290604051600060405180830381858888f193505050501580156116a2573d6000803e3d6000fd5b507fce74a51818e9bcef9292f8d6dc52f785d1909879c1ef1934e54695f6f3e6f61b600154868486604051808581526020018481526020018373ffffffffffffffffffffffffffffffffffffffff1673ffffffffffffffffffffffffffffffffffffffff1681526020018273ffffffffffffffffffffffffffffffffffffffff1673ffffffffffffffffffffffffffffffffffffffff16815260200194505050505060405180910390a1505050505050565b60015481565b6040518060c001604052806000815260200160008152602001600081526020016060815260200160608152602001600073ffffffffffffffffffffffffffffffffffffffff1681525090565b828054600181600116156101000203166002900490600052602060002090601f016020900481019282601f106117e757805160ff1916838001178555611815565b82800160010185558215611815579182015b828111156118145782518255916020019190600101906117f9565b5b5090506118229190611826565b5090565b61184891905b8082111561184457600081600090555060010161182c565b5090565b9056fe50726f64756374205072696365206d7573742062652067726561746572207468616e207a65726f596f752063616e6e6f7420707572636861736520796f7572206f776e2070726f64756374732e4e6f7420656e6f75676820746f20636f7665722074686520746f74616c20636f73742e596f7520617265206e6f7420746865206f776e6572206f662074686973206c697374696e672e50726f64756374205175616e74697479206d7573742062652067726561746572207468616e207a65726fa165627a7a72305820fd2049f2064412d08fd17de762ba0bc0111050bcc8dc8676b4c3852eaa37f28a0029",
  "source": "pragma solidity ^0.5.0;\n\ncontract Congo {\n\tstring public name;\n\tuint public productCount;\n\tenum State {Listed,Processing,Shipped,Complete,Exception}\n\tmapping(uint => Product) public products;\n\n\tstruct Product{\n\t\tuint id;\n\t\tuint quantity;\n\t\tuint price;\n\t\tstring details;\n\t\tstring name;\n\t\taddress payable owner;\n\t}\n\t//event to be emitted when a new product is listed.\n\tevent listingCreated(\n\t\tuint id,\n\t\tuint quantity,\n\t\tuint price,\n\t\tstring details,\n\t\tstring name,\n\t\taddress payable owner\n\t);\n\t//event to be emitted when a listing is updated.\n\tevent listingUpdated(\n\t\tuint id,\n\t\tuint quantity,\n\t\tuint price,\n\t\tstring details,\n\t\tstring name,\n\t\taddress payable owner\n\t);\n\t//event to be emitted when an order is updated.\n\tevent orderUpdated(\n\t\tuint id,\n\t\tuint quantity,\n\t\tuint price,\n\t\tstring details,\n\t\tstring name,\n\t\taddress payable owner\n\t);\n\t//emit that an order has been created between the two parties\n\tevent orderCreated(\n\t\tuint id,\n\t\tuint quantity,\n\t\taddress payable buyer,\n\t\taddress payable seller\n\t);\n\tconstructor() public {\n\t\tname = \"Congo Exchange\";\n\t}\n\t//exposed function that lists a product.\n\tfunction createListing(\n\t\tuint _quantity,\n\t\tuint _price,\n\t\tstring memory _details,\n\t\tstring memory _name)\n\tpublic {\n\t\t//validate user's input\n\t\trequire(bytes(_name).length > 0,\"Product name cannot be empty.\");\n\t\trequire(_price > 0, \"Product Price must be greater than zero\");\n\t\trequire(_quantity > 0, \"Product Quantity must be greater than zero\");\n\t\trequire(bytes(_details).length > 0, \"Product Details are empty\");\n\t\tproductCount++;\n\t\t//using product count as an id for now.\n\t\tproducts[productCount] = Product(\n\t\t\tproductCount,\n\t\t\t_quantity,\n\t\t\t_price,\n\t\t\t_details,\n\t\t\t_name,\n\t\t\tmsg.sender\n\t\t);\n\t\t//broadcast to listeners that a new item has been listed.\n\t\temit listingCreated(\n\t\t\tproductCount,\n\t\t\t_quantity,\n\t\t\t_price,\n\t\t\t_details,\n\t\t\t_name,\n\t\t\tmsg.sender\n\t\t);\n\n\t}\n\n\t//exposed function updates a listing.\n\tfunction updateListing(\n\t\tuint _id,\n\t\tuint _quantity,\n\t\tuint _price,\n\t\tstring memory _details,\n\t\tstring memory _name)\n\tpublic payable{\n\t\t//validate user's input\n\t\trequire(bytes(_name).length > 0,\"Product name cannot be empty.\");\n\t\trequire(_price > 0, \"Product Price must be greater than zero\");\n\t\trequire(_quantity > 0, \"Product Quantity must be greater than zero\");\n\t\trequire(bytes(_details).length > 0, \"Product Details are empty\");\n\t\trequire(_id <= productCount && _id > 0, \"product id is invalid.\");\n\n\t\t//fetch the product.\n\t\tProduct memory _currentStateOfListing = products[_id];\n\n\t\t//compare if caller's address is the owner of this product.\n\t\taddress payable productOwner = _currentStateOfListing.owner;\n\t\trequire(productOwner == msg.sender, \"You are not the owner of this listing.\");\n\n\t\t//update the listing with new data.\n\t\t_currentStateOfListing.name = _name;\n\t\t_currentStateOfListing.price = _price;\n\t\t_currentStateOfListing.quantity = _quantity;\n\t\t_currentStateOfListing.details = _details;\n\n\t\t//update mapping on network\n\t\tproducts[_id] = _currentStateOfListing;\n\n\t\t//broadcast to listeners that an existing product has been updated.\n\t\temit listingUpdated(\n\t\t\t_id,\n\t\t\t_quantity,\n\t\t\t_price,\n\t\t\t_details,\n\t\t\t_name,\n\t\t\tmsg.sender\n\t\t);\n\n\t}\n\n\t//exposed function that allows user to purchase products\n\tfunction purchaseProduct(\n\t\tuint _id,\n\t\tuint _quantity\n\t)\n\tpublic payable{\n\t\t//validate user's input\n\t\trequire(_quantity > 0, \"Product Quantity must be greater than zero\");\n\t\trequire(_id <= productCount && _id > 0, \"product id is invalid.\");\n\n\t\t//get the product.\n\t\tProduct memory _listing = products[_id];\n\t\taddress payable seller = _listing.owner;\n\t\taddress payable buyer = msg.sender;\n\t\tuint orderTotal = _listing.price * _quantity;\n\n\t\t//make sure buyer is not seller.\n\t\trequire(buyer != seller, \"You cannot purchase your own products.\");\n\t\t//make sure payment is sufficient.\n\t\trequire(msg.value >= orderTotal, \"Not enough to cover the total cost.\");\n\n\t\t//update the listing quantity.\n\t\t_listing.quantity = _listing.quantity - _quantity;\n\n\t\t//transfer value.\n\t\taddress(seller).transfer(msg.value);\n\n\t\t//broadcast to listeners that an existing product has been updated.\n\t\temit orderCreated(\n\t\t\tproductCount,\n\t\t\t_quantity,\n\t\t\tbuyer,\n\t\t\tseller\n\t\t);\n\t}\n}",
  "sourcePath": "/Users/karkay/Congo/contracts/contracts/contracts/Congo.sol",
  "compiler": {
    "name": "solc",
    "version": "0.5.8+commit.23d335f2.Emscripten.clang"
  },
  "schemaVersion": "3.0.16",
  "updatedAt": "2019-11-04T17:13:18.642Z",
  "devdoc": {
    "methods": {}
  },
  "userdoc": {
    "methods": {}
  }
}