{
  "contractName": "Congo",
  "abi": [
    {
      "inputs": [],
      "payable": false,
      "stateMutability": "nonpayable",
      "type": "constructor"
    },
    {
      "anonymous": false,
      "inputs": [
        {
          "indexed": false,
          "internalType": "uint256",
          "name": "id",
          "type": "uint256"
        },
        {
          "indexed": false,
          "internalType": "uint256",
          "name": "quantity",
          "type": "uint256"
        },
        {
          "indexed": false,
          "internalType": "uint256",
          "name": "price",
          "type": "uint256"
        },
        {
          "indexed": false,
          "internalType": "string",
          "name": "details",
          "type": "string"
        },
        {
          "indexed": false,
          "internalType": "string",
          "name": "name",
          "type": "string"
        },
        {
          "indexed": false,
          "internalType": "string",
          "name": "imageLink",
          "type": "string"
        },
        {
          "indexed": false,
          "internalType": "address payable",
          "name": "owner",
          "type": "address"
        },
        {
          "indexed": false,
          "internalType": "string",
          "name": "sellerContactDetails",
          "type": "string"
        }
      ],
      "name": "listingCreated",
      "type": "event"
    },
    {
      "anonymous": false,
      "inputs": [
        {
          "indexed": false,
          "internalType": "uint256",
          "name": "id",
          "type": "uint256"
        },
        {
          "indexed": false,
          "internalType": "uint256",
          "name": "quantity",
          "type": "uint256"
        },
        {
          "indexed": false,
          "internalType": "uint256",
          "name": "price",
          "type": "uint256"
        },
        {
          "indexed": false,
          "internalType": "string",
          "name": "details",
          "type": "string"
        },
        {
          "indexed": false,
          "internalType": "string",
          "name": "imageLink",
          "type": "string"
        },
        {
          "indexed": false,
          "internalType": "string",
          "name": "name",
          "type": "string"
        },
        {
          "indexed": false,
          "internalType": "address payable",
          "name": "owner",
          "type": "address"
        },
        {
          "indexed": false,
          "internalType": "string",
          "name": "sellerContactDetails",
          "type": "string"
        }
      ],
      "name": "listingUpdated",
      "type": "event"
    },
    {
      "anonymous": false,
      "inputs": [
        {
          "indexed": false,
          "internalType": "uint256",
          "name": "orderID",
          "type": "uint256"
        },
        {
          "indexed": false,
          "internalType": "uint256",
          "name": "quantity",
          "type": "uint256"
        },
        {
          "indexed": false,
          "internalType": "uint256",
          "name": "prodID",
          "type": "uint256"
        },
        {
          "indexed": false,
          "internalType": "uint256",
          "name": "total",
          "type": "uint256"
        },
        {
          "indexed": false,
          "internalType": "string",
          "name": "prodName",
          "type": "string"
        },
        {
          "indexed": false,
          "internalType": "address payable",
          "name": "buyerAddress",
          "type": "address"
        },
        {
          "indexed": false,
          "internalType": "address payable",
          "name": "sellerAddress",
          "type": "address"
        },
        {
          "indexed": false,
          "internalType": "string",
          "name": "notes",
          "type": "string"
        },
        {
          "indexed": false,
          "internalType": "string",
          "name": "sellerContactDetails",
          "type": "string"
        },
        {
          "indexed": false,
          "internalType": "string",
          "name": "buyerContactDetails",
          "type": "string"
        },
        {
          "indexed": false,
          "internalType": "enum Congo.State",
          "name": "orderStatus",
          "type": "uint8"
        }
      ],
      "name": "orderCreated",
      "type": "event"
    },
    {
      "anonymous": false,
      "inputs": [
        {
          "indexed": false,
          "internalType": "uint256",
          "name": "orderID",
          "type": "uint256"
        },
        {
          "indexed": false,
          "internalType": "enum Congo.State",
          "name": "orderStatus",
          "type": "uint8"
        }
      ],
      "name": "orderUpdated",
      "type": "event"
    },
    {
      "constant": true,
      "inputs": [],
      "name": "name",
      "outputs": [
        {
          "internalType": "string",
          "name": "",
          "type": "string"
        }
      ],
      "payable": false,
      "stateMutability": "view",
      "type": "function"
    },
    {
      "constant": true,
      "inputs": [],
      "name": "orderCount",
      "outputs": [
        {
          "internalType": "uint256",
          "name": "",
          "type": "uint256"
        }
      ],
      "payable": false,
      "stateMutability": "view",
      "type": "function"
    },
    {
      "constant": true,
      "inputs": [
        {
          "internalType": "uint256",
          "name": "",
          "type": "uint256"
        }
      ],
      "name": "orders",
      "outputs": [
        {
          "internalType": "uint256",
          "name": "id",
          "type": "uint256"
        },
        {
          "internalType": "uint256",
          "name": "quantity",
          "type": "uint256"
        },
        {
          "internalType": "uint256",
          "name": "prodID",
          "type": "uint256"
        },
        {
          "internalType": "uint256",
          "name": "total",
          "type": "uint256"
        },
        {
          "internalType": "string",
          "name": "prodName",
          "type": "string"
        },
        {
          "internalType": "address payable",
          "name": "buyerAddress",
          "type": "address"
        },
        {
          "internalType": "address payable",
          "name": "sellerAddress",
          "type": "address"
        },
        {
          "internalType": "string",
          "name": "notes",
          "type": "string"
        },
        {
          "internalType": "string",
          "name": "sellerContactDetails",
          "type": "string"
        },
        {
          "internalType": "string",
          "name": "buyerContactDetails",
          "type": "string"
        },
        {
          "internalType": "enum Congo.State",
          "name": "orderStatus",
          "type": "uint8"
        }
      ],
      "payable": false,
      "stateMutability": "view",
      "type": "function"
    },
    {
      "constant": true,
      "inputs": [],
      "name": "productCount",
      "outputs": [
        {
          "internalType": "uint256",
          "name": "",
          "type": "uint256"
        }
      ],
      "payable": false,
      "stateMutability": "view",
      "type": "function"
    },
    {
      "constant": true,
      "inputs": [
        {
          "internalType": "uint256",
          "name": "",
          "type": "uint256"
        }
      ],
      "name": "products",
      "outputs": [
        {
          "internalType": "uint256",
          "name": "id",
          "type": "uint256"
        },
        {
          "internalType": "uint256",
          "name": "quantity",
          "type": "uint256"
        },
        {
          "internalType": "uint256",
          "name": "price",
          "type": "uint256"
        },
        {
          "internalType": "string",
          "name": "details",
          "type": "string"
        },
        {
          "internalType": "string",
          "name": "name",
          "type": "string"
        },
        {
          "internalType": "string",
          "name": "imageLink",
          "type": "string"
        },
        {
          "internalType": "address payable",
          "name": "owner",
          "type": "address"
        },
        {
          "internalType": "string",
          "name": "sellerContactDetails",
          "type": "string"
        }
      ],
      "payable": false,
      "stateMutability": "view",
      "type": "function"
    },
    {
      "constant": false,
      "inputs": [
        {
          "internalType": "uint256",
          "name": "_quantity",
          "type": "uint256"
        },
        {
          "internalType": "uint256",
          "name": "_price",
          "type": "uint256"
        },
        {
          "internalType": "string",
          "name": "_details",
          "type": "string"
        },
        {
          "internalType": "string",
          "name": "_name",
          "type": "string"
        },
        {
          "internalType": "string",
          "name": "_imageLink",
          "type": "string"
        },
        {
          "internalType": "string",
          "name": "_sellerContactDetails",
          "type": "string"
        }
      ],
      "name": "createListing",
      "outputs": [],
      "payable": false,
      "stateMutability": "nonpayable",
      "type": "function"
    },
    {
      "constant": false,
      "inputs": [
        {
          "internalType": "uint256",
          "name": "_id",
          "type": "uint256"
        },
        {
          "internalType": "uint256",
          "name": "_quantity",
          "type": "uint256"
        },
        {
          "internalType": "uint256",
          "name": "_price",
          "type": "uint256"
        },
        {
          "internalType": "string",
          "name": "_details",
          "type": "string"
        },
        {
          "internalType": "string",
          "name": "_name",
          "type": "string"
        },
        {
          "internalType": "string",
          "name": "_imageLink",
          "type": "string"
        },
        {
          "internalType": "string",
          "name": "_sellerContactDetails",
          "type": "string"
        }
      ],
      "name": "updateListing",
      "outputs": [],
      "payable": true,
      "stateMutability": "payable",
      "type": "function"
    },
    {
      "constant": false,
      "inputs": [
        {
          "internalType": "uint256",
          "name": "_id",
          "type": "uint256"
        },
        {
          "internalType": "uint256",
          "name": "_quantity",
          "type": "uint256"
        },
        {
          "internalType": "string",
          "name": "_notes",
          "type": "string"
        },
        {
          "internalType": "string",
          "name": "_buyerContactDetails",
          "type": "string"
        }
      ],
      "name": "createOrder",
      "outputs": [],
      "payable": true,
      "stateMutability": "payable",
      "type": "function"
    },
    {
      "constant": false,
      "inputs": [
        {
          "internalType": "uint256",
          "name": "_id",
          "type": "uint256"
        },
        {
          "internalType": "uint256",
          "name": "nextState",
          "type": "uint256"
        }
      ],
      "name": "updateOrder",
      "outputs": [],
      "payable": true,
      "stateMutability": "payable",
      "type": "function"
    }
  ],
  "bytecode": "0x60806040523480156200001157600080fd5b506040518060400160405280600e81526020017f436f6e676f2045786368616e6765000000000000000000000000000000000000815250600090805190602001906200005f92919062000066565b5062000115565b828054600181600116156101000203166002900490600052602060002090601f016020900481019282601f10620000a957805160ff1916838001178555620000da565b82800160010185558215620000da579182015b82811115620000d9578251825591602001919060010190620000bc565b5b509050620000e99190620000ed565b5090565b6200011291905b808211156200010e576000816000905550600101620000f4565b5090565b90565b61446980620001256000396000f3fe6080604052600436106100865760003560e01c8063587b71a611610059578063587b71a61461054a5780637acc0b2014610582578063a85c38ef146107c2578063c37c2d5a14610a51578063e0f6ef8714610cf257610086565b806306fdde031461008b5780632453ffa81461011b5780634a4b7e3e14610146578063534e3d21146102ac575b600080fd5b34801561009757600080fd5b506100a0610d1d565b6040518080602001828103825283818151815260200191508051906020019080838360005b838110156100e05780820151818401526020810190506100c5565b50505050905090810190601f16801561010d5780820380516001836020036101000a031916815260200191505b509250505060405180910390f35b34801561012757600080fd5b50610130610dbb565b6040518082815260200191505060405180910390f35b6102aa6004803603608081101561015c57600080fd5b8101908080359060200190929190803590602001909291908035906020019064010000000081111561018d57600080fd5b82018360208201111561019f57600080fd5b803590602001918460018302840111640100000000831117156101c157600080fd5b91908080601f016020809104026020016040519081016040528093929190818152602001838380828437600081840152601f19601f8201169050808301925050505050505091929192908035906020019064010000000081111561022457600080fd5b82018360208201111561023657600080fd5b8035906020019184600183028401116401000000008311171561025857600080fd5b91908080601f016020809104026020016040519081016040528093929190818152602001838380828437600081840152601f19601f820116905080830192505050505050509192919290505050610dc1565b005b610548600480360360e08110156102c257600080fd5b81019080803590602001909291908035906020019092919080359060200190929190803590602001906401000000008111156102fd57600080fd5b82018360208201111561030f57600080fd5b8035906020019184600183028401116401000000008311171561033157600080fd5b91908080601f016020809104026020016040519081016040528093929190818152602001838380828437600081840152601f19601f8201169050808301925050505050505091929192908035906020019064010000000081111561039457600080fd5b8201836020820111156103a657600080fd5b803590602001918460018302840111640100000000831117156103c857600080fd5b91908080601f016020809104026020016040519081016040528093929190818152602001838380828437600081840152601f19601f8201169050808301925050505050505091929192908035906020019064010000000081111561042b57600080fd5b82018360208201111561043d57600080fd5b8035906020019184600183028401116401000000008311171561045f57600080fd5b91908080601f016020809104026020016040519081016040528093929190818152602001838380828437600081840152601f19601f820116905080830192505050505050509192919290803590602001906401000000008111156104c257600080fd5b8201836020820111156104d457600080fd5b803590602001918460018302840111640100000000831117156104f657600080fd5b91908080601f016020809104026020016040519081016040528093929190818152602001838380828437600081840152601f19601f820116905080830192505050505050509192919290505050611847565b005b6105806004803603604081101561056057600080fd5b81019080803590602001909291908035906020019092919050505061226d565b005b34801561058e57600080fd5b506105bb600480360360208110156105a557600080fd5b8101908080359060200190929190505050612ed9565b604051808981526020018881526020018781526020018060200180602001806020018673ffffffffffffffffffffffffffffffffffffffff1673ffffffffffffffffffffffffffffffffffffffff1681526020018060200185810385528a818151815260200191508051906020019080838360005b8381101561064b578082015181840152602081019050610630565b50505050905090810190601f1680156106785780820380516001836020036101000a031916815260200191505b50858103845289818151815260200191508051906020019080838360005b838110156106b1578082015181840152602081019050610696565b50505050905090810190601f1680156106de5780820380516001836020036101000a031916815260200191505b50858103835288818151815260200191508051906020019080838360005b838110156107175780820151818401526020810190506106fc565b50505050905090810190601f1680156107445780820380516001836020036101000a031916815260200191505b50858103825286818151815260200191508051906020019080838360005b8381101561077d578082015181840152602081019050610762565b50505050905090810190601f1680156107aa5780820380516001836020036101000a031916815260200191505b509c5050505050505050505050505060405180910390f35b3480156107ce57600080fd5b506107fb600480360360208110156107e557600080fd5b81019080803590602001909291905050506131a1565b604051808c81526020018b81526020018a8152602001898152602001806020018873ffffffffffffffffffffffffffffffffffffffff1673ffffffffffffffffffffffffffffffffffffffff1681526020018773ffffffffffffffffffffffffffffffffffffffff1673ffffffffffffffffffffffffffffffffffffffff16815260200180602001806020018060200186600381111561089757fe5b60ff16815260200185810385528c818151815260200191508051906020019080838360005b838110156108d75780820151818401526020810190506108bc565b50505050905090810190601f1680156109045780820380516001836020036101000a031916815260200191505b50858103845289818151815260200191508051906020019080838360005b8381101561093d578082015181840152602081019050610922565b50505050905090810190601f16801561096a5780820380516001836020036101000a031916815260200191505b50858103835288818151815260200191508051906020019080838360005b838110156109a3578082015181840152602081019050610988565b50505050905090810190601f1680156109d05780820380516001836020036101000a031916815260200191505b50858103825287818151815260200191508051906020019080838360005b83811015610a095780820151818401526020810190506109ee565b50505050905090810190601f168015610a365780820380516001836020036101000a031916815260200191505b509f5050505050505050505050505050505060405180910390f35b348015610a5d57600080fd5b50610cf0600480360360c0811015610a7457600080fd5b81019080803590602001909291908035906020019092919080359060200190640100000000811115610aa557600080fd5b820183602082011115610ab757600080fd5b80359060200191846001830284011164010000000083111715610ad957600080fd5b91908080601f016020809104026020016040519081016040528093929190818152602001838380828437600081840152601f19601f82011690508083019250505050505050919291929080359060200190640100000000811115610b3c57600080fd5b820183602082011115610b4e57600080fd5b80359060200191846001830284011164010000000083111715610b7057600080fd5b91908080601f016020809104026020016040519081016040528093929190818152602001838380828437600081840152601f19601f82011690508083019250505050505050919291929080359060200190640100000000811115610bd357600080fd5b820183602082011115610be557600080fd5b80359060200191846001830284011164010000000083111715610c0757600080fd5b91908080601f016020809104026020016040519081016040528093929190818152602001838380828437600081840152601f19601f82011690508083019250505050505050919291929080359060200190640100000000811115610c6a57600080fd5b820183602082011115610c7c57600080fd5b80359060200191846001830284011164010000000083111715610c9e57600080fd5b91908080601f016020809104026020016040519081016040528093929190818152602001838380828437600081840152601f19601f8201169050808301925050505050505091929192905050506134a8565b005b348015610cfe57600080fd5b50610d07613ac4565b6040518082815260200191505060405180910390f35b60008054600181600116156101000203166002900480601f016020809104026020016040519081016040528092919081815260200182805460018160011615610100020316600290048015610db35780601f10610d8857610100808354040283529160200191610db3565b820191906000526020600020905b815481529060010190602001808311610d9657829003601f168201915b505050505081565b60025481565b60008311610e1a576040517f08c379a000000000000000000000000000000000000000000000000000000000815260040180806020018281038252602a81526020018061440b602a913960400191505060405180910390fd5b6001548411158015610e2c5750600084115b610e9e576040517f08c379a00000000000000000000000000000000000000000000000000000000081526004018080602001828103825260168152602001807f70726f6475637420696420697320696e76616c69642e0000000000000000000081525060200191505060405180910390fd5b6000815111610f15576040517f08c379a000000000000000000000000000000000000000000000000000000000815260040180806020018281038252601f8152602001807f427579657220436f6e746163742044657461696c732061726520656d7074790081525060200191505060405180910390fd5b610f1d614139565b6003600086815260200190815260200160002060405180610100016040529081600082015481526020016001820154815260200160028201548152602001600382018054600181600116156101000203166002900480601f016020809104026020016040519081016040528092919081815260200182805460018160011615610100020316600290048015610ff35780601f10610fc857610100808354040283529160200191610ff3565b820191906000526020600020905b815481529060010190602001808311610fd657829003601f168201915b50505050508152602001600482018054600181600116156101000203166002900480601f0160208091040260200160405190810160405280929190818152602001828054600181600116156101000203166002900480156110955780601f1061106a57610100808354040283529160200191611095565b820191906000526020600020905b81548152906001019060200180831161107857829003601f168201915b50505050508152602001600582018054600181600116156101000203166002900480601f0160208091040260200160405190810160405280929190818152602001828054600181600116156101000203166002900480156111375780601f1061110c57610100808354040283529160200191611137565b820191906000526020600020905b81548152906001019060200180831161111a57829003601f168201915b505050505081526020016006820160009054906101000a900473ffffffffffffffffffffffffffffffffffffffff1673ffffffffffffffffffffffffffffffffffffffff1673ffffffffffffffffffffffffffffffffffffffff168152602001600782018054600181600116156101000203166002900480601f01602080910402602001604051908101604052809291908181526020018280546001816001161561010002031660029004801561122f5780601f106112045761010080835404028352916020019161122f565b820191906000526020600020905b81548152906001019060200180831161121257829003601f168201915b505050505081525050905060008160c0015190506000339050600083602001519050808711156112aa576040517f08c379a000000000000000000000000000000000000000000000000000000000815260040180806020018281038252602c8152602001806142cb602c913960400191505060405180910390fd5b600087856040015102905087820391508373ffffffffffffffffffffffffffffffffffffffff168373ffffffffffffffffffffffffffffffffffffffff16141561133f576040517f08c379a00000000000000000000000000000000000000000000000000000000081526004018080602001828103825260268152602001806143786026913960400191505060405180910390fd5b80341015611398576040517f08c379a000000000000000000000000000000000000000000000000000000000815260040180806020018281038252602381526020018061439e6023913960400191505060405180910390fd5b6113a28983613aca565b60026000815480929190600101919050555060405180610160016040528060025481526020018981526020018a8152602001828152602001866080015181526020018473ffffffffffffffffffffffffffffffffffffffff1681526020018573ffffffffffffffffffffffffffffffffffffffff1681526020018881526020018660e0015181526020018781526020016000600381111561143f57fe5b81525060046000600254815260200190815260200160002060008201518160000155602082015181600101556040820151816002015560608201518160030155608082015181600401908051906020019061149b929190614194565b5060a08201518160050160006101000a81548173ffffffffffffffffffffffffffffffffffffffff021916908373ffffffffffffffffffffffffffffffffffffffff16021790555060c08201518160060160006101000a81548173ffffffffffffffffffffffffffffffffffffffff021916908373ffffffffffffffffffffffffffffffffffffffff16021790555060e0820151816007019080519060200190611546929190614194565b50610100820151816008019080519060200190611564929190614194565b50610120820151816009019080519060200190611582929190614194565b5061014082015181600a0160006101000a81548160ff021916908360038111156115a857fe5b02179055509050507f222a393215b1913680e04cacf6ab8787ca04ab6a8406b3a507106ed4bbdf9d8d600254898b848960800151888a8e8d60e001518f6000604051808c81526020018b81526020018a8152602001898152602001806020018873ffffffffffffffffffffffffffffffffffffffff1673ffffffffffffffffffffffffffffffffffffffff1681526020018773ffffffffffffffffffffffffffffffffffffffff1673ffffffffffffffffffffffffffffffffffffffff16815260200180602001806020018060200186600381111561168357fe5b60ff16815260200185810385528c818151815260200191508051906020019080838360005b838110156116c35780820151818401526020810190506116a8565b50505050905090810190601f1680156116f05780820380516001836020036101000a031916815260200191505b50858103845289818151815260200191508051906020019080838360005b8381101561172957808201518184015260208101905061170e565b50505050905090810190601f1680156117565780820380516001836020036101000a031916815260200191505b50858103835288818151815260200191508051906020019080838360005b8381101561178f578082015181840152602081019050611774565b50505050905090810190601f1680156117bc5780820380516001836020036101000a031916815260200191505b50858103825287818151815260200191508051906020019080838360005b838110156117f55780820151818401526020810190506117da565b50505050905090810190601f1680156118225780820380516001836020036101000a031916815260200191505b509f5050505050505050505050505050505060405180910390a1505050505050505050565b60008351116118be576040517f08c379a000000000000000000000000000000000000000000000000000000000815260040180806020018281038252601d8152602001807f50726f64756374206e616d652063616e6e6f7420626520656d7074792e00000081525060200191505060405180910390fd5b60008511611917576040517f08c379a00000000000000000000000000000000000000000000000000000000081526004018080602001828103825260278152602001806143216027913960400191505060405180910390fd5b60008611611970576040517f08c379a000000000000000000000000000000000000000000000000000000000815260040180806020018281038252602a81526020018061440b602a913960400191505060405180910390fd5b60008451116119e7576040517f08c379a00000000000000000000000000000000000000000000000000000000081526004018080602001828103825260198152602001807f50726f647563742044657461696c732061726520656d7074790000000000000081525060200191505060405180910390fd5b60015487111580156119f95750600087115b611a6b576040517f08c379a00000000000000000000000000000000000000000000000000000000081526004018080602001828103825260168152602001807f70726f6475637420696420697320696e76616c69642e0000000000000000000081525060200191505060405180910390fd5b6000815111611ae2576040517f08c379a00000000000000000000000000000000000000000000000000000000081526004018080602001828103825260208152602001807f53656c6c657220436f6e746163742044657461696c732061726520656d70747981525060200191505060405180910390fd5b6000825111611b59576040517f08c379a00000000000000000000000000000000000000000000000000000000081526004018080602001828103825260138152602001807f496d616765204c696e6b20697320656d7074790000000000000000000000000081525060200191505060405180910390fd5b611b61614139565b6003600089815260200190815260200160002060405180610100016040529081600082015481526020016001820154815260200160028201548152602001600382018054600181600116156101000203166002900480601f016020809104026020016040519081016040528092919081815260200182805460018160011615610100020316600290048015611c375780601f10611c0c57610100808354040283529160200191611c37565b820191906000526020600020905b815481529060010190602001808311611c1a57829003601f168201915b50505050508152602001600482018054600181600116156101000203166002900480601f016020809104026020016040519081016040528092919081815260200182805460018160011615610100020316600290048015611cd95780601f10611cae57610100808354040283529160200191611cd9565b820191906000526020600020905b815481529060010190602001808311611cbc57829003601f168201915b50505050508152602001600582018054600181600116156101000203166002900480601f016020809104026020016040519081016040528092919081815260200182805460018160011615610100020316600290048015611d7b5780601f10611d5057610100808354040283529160200191611d7b565b820191906000526020600020905b815481529060010190602001808311611d5e57829003601f168201915b505050505081526020016006820160009054906101000a900473ffffffffffffffffffffffffffffffffffffffff1673ffffffffffffffffffffffffffffffffffffffff1673ffffffffffffffffffffffffffffffffffffffff168152602001600782018054600181600116156101000203166002900480601f016020809104026020016040519081016040528092919081815260200182805460018160011615610100020316600290048015611e735780601f10611e4857610100808354040283529160200191611e73565b820191906000526020600020905b815481529060010190602001808311611e5657829003601f168201915b505050505081525050905060008160c0015190503373ffffffffffffffffffffffffffffffffffffffff168173ffffffffffffffffffffffffffffffffffffffff1614611f0b576040517f08c379a00000000000000000000000000000000000000000000000000000000081526004018080602001828103825260268152602001806143c16026913960400191505060405180910390fd5b8482608001819052508682604001818152505087826020018181525050858260600181905250838260a00181905250828260e0018190525081600360008b81526020019081526020016000206000820151816000015560208201518160010155604082015181600201556060820151816003019080519060200190611f91929190614194565b506080820151816004019080519060200190611fae929190614194565b5060a0820151816005019080519060200190611fcb929190614194565b5060c08201518160060160006101000a81548173ffffffffffffffffffffffffffffffffffffffff021916908373ffffffffffffffffffffffffffffffffffffffff16021790555060e082015181600701908051906020019061202f929190614194565b509050507fd7e495504c4d9018ae9d54840e5302471f344fa8731a9ff87d20a40ca5ccac4589898989888a338a604051808981526020018881526020018781526020018060200180602001806020018673ffffffffffffffffffffffffffffffffffffffff1673ffffffffffffffffffffffffffffffffffffffff1681526020018060200185810385528a818151815260200191508051906020019080838360005b838110156120ec5780820151818401526020810190506120d1565b50505050905090810190601f1680156121195780820380516001836020036101000a031916815260200191505b50858103845289818151815260200191508051906020019080838360005b83811015612152578082015181840152602081019050612137565b50505050905090810190601f16801561217f5780820380516001836020036101000a031916815260200191505b50858103835288818151815260200191508051906020019080838360005b838110156121b857808201518184015260208101905061219d565b50505050905090810190601f1680156121e55780820380516001836020036101000a031916815260200191505b50858103825286818151815260200191508051906020019080838360005b8381101561221e578082015181840152602081019050612203565b50505050905090810190601f16801561224b5780820380516001836020036101000a031916815260200191505b509c5050505050505050505050505060405180910390a1505050505050505050565b600254821115801561227f5750600082115b6122f1576040517f08c379a00000000000000000000000000000000000000000000000000000000081526004018080602001828103825260148152602001807f6f7264657220696420697320696e76616c69642e00000000000000000000000081525060200191505060405180910390fd5b806003808111156122fe57fe5b1015612372576040517f08c379a00000000000000000000000000000000000000000000000000000000081526004018080602001828103825260148152602001807f696e76616c696420696e7075742073746174652e00000000000000000000000081525060200191505060405180910390fd5b61237a614214565b600460008481526020019081526020016000206040518061016001604052908160008201548152602001600182015481526020016002820154815260200160038201548152602001600482018054600181600116156101000203166002900480601f01602080910402602001604051908101604052809291908181526020018280546001816001161561010002031660029004801561245a5780601f1061242f5761010080835404028352916020019161245a565b820191906000526020600020905b81548152906001019060200180831161243d57829003601f168201915b505050505081526020016005820160009054906101000a900473ffffffffffffffffffffffffffffffffffffffff1673ffffffffffffffffffffffffffffffffffffffff1673ffffffffffffffffffffffffffffffffffffffff1681526020016006820160009054906101000a900473ffffffffffffffffffffffffffffffffffffffff1673ffffffffffffffffffffffffffffffffffffffff1673ffffffffffffffffffffffffffffffffffffffff168152602001600782018054600181600116156101000203166002900480601f0160208091040260200160405190810160405280929190818152602001828054600181600116156101000203166002900480156125a85780601f1061257d576101008083540402835291602001916125a8565b820191906000526020600020905b81548152906001019060200180831161258b57829003601f168201915b50505050508152602001600882018054600181600116156101000203166002900480601f01602080910402602001604051908101604052809291908181526020018280546001816001161561010002031660029004801561264a5780601f1061261f5761010080835404028352916020019161264a565b820191906000526020600020905b81548152906001019060200180831161262d57829003601f168201915b50505050508152602001600982018054600181600116156101000203166002900480601f0160208091040260200160405190810160405280929190818152602001828054600181600116156101000203166002900480156126ec5780601f106126c1576101008083540402835291602001916126ec565b820191906000526020600020905b8154815290600101906020018083116126cf57829003601f168201915b50505050508152602001600a820160009054906101000a900460ff16600381111561271357fe5b600381111561271e57fe5b81525050905060038081111561273057fe5b82600381111561273c57fe5b600381111561274757fe5b14156127da578060a0015173ffffffffffffffffffffffffffffffffffffffff163373ffffffffffffffffffffffffffffffffffffffff16146127d5576040517f08c379a00000000000000000000000000000000000000000000000000000000081526004018080602001828103825260248152602001806143e76024913960400191505060405180910390fd5b612863565b8060c0015173ffffffffffffffffffffffffffffffffffffffff163373ffffffffffffffffffffffffffffffffffffffff1614612862576040517f08c379a000000000000000000000000000000000000000000000000000000000815260040180806020018281038252602a8152602001806142f7602a913960400191505060405180910390fd5b5b6000600381111561287057fe5b816101400151600381111561288157fe5b146128d7576040517f08c379a00000000000000000000000000000000000000000000000000000000081526004018080602001828103825260308152602001806143486030913960400191505060405180910390fd5b8160038111156128e357fe5b81610140019060038111156128f457fe5b9081600381111561290157fe5b81525050806004600085815260200190815260200160002060008201518160000155602082015181600101556040820151816002015560608201518160030155608082015181600401908051906020019061295d929190614194565b5060a08201518160050160006101000a81548173ffffffffffffffffffffffffffffffffffffffff021916908373ffffffffffffffffffffffffffffffffffffffff16021790555060c08201518160060160006101000a81548173ffffffffffffffffffffffffffffffffffffffff021916908373ffffffffffffffffffffffffffffffffffffffff16021790555060e0820151816007019080519060200190612a08929190614194565b50610100820151816008019080519060200190612a26929190614194565b50610120820151816009019080519060200190612a44929190614194565b5061014082015181600a0160006101000a81548160ff02191690836003811115612a6a57fe5b021790555090505060016003811115612a7f57fe5b826003811115612a8b57fe5b6003811115612a9657fe5b1415612af0578060c0015173ffffffffffffffffffffffffffffffffffffffff166108fc82606001519081150290604051600060405180830381858888f19350505050158015612aea573d6000803e3d6000fd5b50612e82565b8060a0015173ffffffffffffffffffffffffffffffffffffffff166108fc82606001519081150290604051600060405180830381858888f19350505050158015612b3e573d6000803e3d6000fd5b50612b47614139565b600360008360400151815260200190815260200160002060405180610100016040529081600082015481526020016001820154815260200160028201548152602001600382018054600181600116156101000203166002900480601f016020809104026020016040519081016040528092919081815260200182805460018160011615610100020316600290048015612c215780601f10612bf657610100808354040283529160200191612c21565b820191906000526020600020905b815481529060010190602001808311612c0457829003601f168201915b50505050508152602001600482018054600181600116156101000203166002900480601f016020809104026020016040519081016040528092919081815260200182805460018160011615610100020316600290048015612cc35780601f10612c9857610100808354040283529160200191612cc3565b820191906000526020600020905b815481529060010190602001808311612ca657829003601f168201915b50505050508152602001600582018054600181600116156101000203166002900480601f016020809104026020016040519081016040528092919081815260200182805460018160011615610100020316600290048015612d655780601f10612d3a57610100808354040283529160200191612d65565b820191906000526020600020905b815481529060010190602001808311612d4857829003601f168201915b505050505081526020016006820160009054906101000a900473ffffffffffffffffffffffffffffffffffffffff1673ffffffffffffffffffffffffffffffffffffffff1673ffffffffffffffffffffffffffffffffffffffff168152602001600782018054600181600116156101000203166002900480601f016020809104026020016040519081016040528092919081815260200182805460018160011615610100020316600290048015612e5d5780601f10612e3257610100808354040283529160200191612e5d565b820191906000526020600020905b815481529060010190602001808311612e4057829003601f168201915b5050505050815250509050612e8082604001518360200151836020015101613aca565b505b7f5f1ed4d1c4bd2dbc03f9f80ac9ac30bb73c1d56762781ae27044bb72b5f997078382610140015160405180838152602001826003811115612ec057fe5b60ff1681526020019250505060405180910390a1505050565b6003602052806000526040600020600091509050806000015490806001015490806002015490806003018054600181600116156101000203166002900480601f016020809104026020016040519081016040528092919081815260200182805460018160011615610100020316600290048015612f975780601f10612f6c57610100808354040283529160200191612f97565b820191906000526020600020905b815481529060010190602001808311612f7a57829003601f168201915b505050505090806004018054600181600116156101000203166002900480601f0160208091040260200160405190810160405280929190818152602001828054600181600116156101000203166002900480156130355780601f1061300a57610100808354040283529160200191613035565b820191906000526020600020905b81548152906001019060200180831161301857829003601f168201915b505050505090806005018054600181600116156101000203166002900480601f0160208091040260200160405190810160405280929190818152602001828054600181600116156101000203166002900480156130d35780601f106130a8576101008083540402835291602001916130d3565b820191906000526020600020905b8154815290600101906020018083116130b657829003601f168201915b5050505050908060060160009054906101000a900473ffffffffffffffffffffffffffffffffffffffff1690806007018054600181600116156101000203166002900480601f0160208091040260200160405190810160405280929190818152602001828054600181600116156101000203166002900480156131975780601f1061316c57610100808354040283529160200191613197565b820191906000526020600020905b81548152906001019060200180831161317a57829003601f168201915b5050505050905088565b6004602052806000526040600020600091509050806000015490806001015490806002015490806003015490806004018054600181600116156101000203166002900480601f0160208091040260200160405190810160405280929190818152602001828054600181600116156101000203166002900480156132655780601f1061323a57610100808354040283529160200191613265565b820191906000526020600020905b81548152906001019060200180831161324857829003601f168201915b5050505050908060050160009054906101000a900473ffffffffffffffffffffffffffffffffffffffff16908060060160009054906101000a900473ffffffffffffffffffffffffffffffffffffffff1690806007018054600181600116156101000203166002900480601f01602080910402602001604051908101604052809291908181526020018280546001816001161561010002031660029004801561334f5780601f106133245761010080835404028352916020019161334f565b820191906000526020600020905b81548152906001019060200180831161333257829003601f168201915b505050505090806008018054600181600116156101000203166002900480601f0160208091040260200160405190810160405280929190818152602001828054600181600116156101000203166002900480156133ed5780601f106133c2576101008083540402835291602001916133ed565b820191906000526020600020905b8154815290600101906020018083116133d057829003601f168201915b505050505090806009018054600181600116156101000203166002900480601f01602080910402602001604051908101604052809291908181526020018280546001816001161561010002031660029004801561348b5780601f106134605761010080835404028352916020019161348b565b820191906000526020600020905b81548152906001019060200180831161346e57829003601f168201915b50505050509080600a0160009054906101000a900460ff1690508b565b600083511161351f576040517f08c379a000000000000000000000000000000000000000000000000000000000815260040180806020018281038252601d8152602001807f50726f64756374206e616d652063616e6e6f7420626520656d7074792e00000081525060200191505060405180910390fd5b60008511613578576040517f08c379a00000000000000000000000000000000000000000000000000000000081526004018080602001828103825260278152602001806143216027913960400191505060405180910390fd5b600086116135d1576040517f08c379a000000000000000000000000000000000000000000000000000000000815260040180806020018281038252602a81526020018061440b602a913960400191505060405180910390fd5b6000845111613648576040517f08c379a00000000000000000000000000000000000000000000000000000000081526004018080602001828103825260198152602001807f50726f647563742044657461696c732061726520656d7074790000000000000081525060200191505060405180910390fd5b60008151116136bf576040517f08c379a00000000000000000000000000000000000000000000000000000000081526004018080602001828103825260208152602001807f53656c6c657220436f6e746163742044657461696c732061726520656d70747981525060200191505060405180910390fd5b6000825111613736576040517f08c379a00000000000000000000000000000000000000000000000000000000081526004018080602001828103825260138152602001807f496d616765204c696e6b20697320656d7074790000000000000000000000000081525060200191505060405180910390fd5b60016000815480929190600101919050555060405180610100016040528060015481526020018781526020018681526020018581526020018481526020018381526020013373ffffffffffffffffffffffffffffffffffffffff1681526020018281525060036000600154815260200190815260200160002060008201518160000155602082015181600101556040820151816002015560608201518160030190805190602001906137e9929190614194565b506080820151816004019080519060200190613806929190614194565b5060a0820151816005019080519060200190613823929190614194565b5060c08201518160060160006101000a81548173ffffffffffffffffffffffffffffffffffffffff021916908373ffffffffffffffffffffffffffffffffffffffff16021790555060e0820151816007019080519060200190613887929190614194565b509050507f3d066cecd9e38b6727c3e1db2a27bc098ecd639a5d3c5c41ddd58231c538601860015487878787873388604051808981526020018881526020018781526020018060200180602001806020018673ffffffffffffffffffffffffffffffffffffffff1673ffffffffffffffffffffffffffffffffffffffff1681526020018060200185810385528a818151815260200191508051906020019080838360005b8381101561394657808201518184015260208101905061392b565b50505050905090810190601f1680156139735780820380516001836020036101000a031916815260200191505b50858103845289818151815260200191508051906020019080838360005b838110156139ac578082015181840152602081019050613991565b50505050905090810190601f1680156139d95780820380516001836020036101000a031916815260200191505b50858103835288818151815260200191508051906020019080838360005b83811015613a125780820151818401526020810190506139f7565b50505050905090810190601f168015613a3f5780820380516001836020036101000a031916815260200191505b50858103825286818151815260200191508051906020019080838360005b83811015613a78578082015181840152602081019050613a5d565b50505050905090810190601f168015613aa55780820380516001836020036101000a031916815260200191505b509c5050505050505050505050505060405180910390a1505050505050565b60015481565b613ad2614139565b6003600084815260200190815260200160002060405180610100016040529081600082015481526020016001820154815260200160028201548152602001600382018054600181600116156101000203166002900480601f016020809104026020016040519081016040528092919081815260200182805460018160011615610100020316600290048015613ba85780601f10613b7d57610100808354040283529160200191613ba8565b820191906000526020600020905b815481529060010190602001808311613b8b57829003601f168201915b50505050508152602001600482018054600181600116156101000203166002900480601f016020809104026020016040519081016040528092919081815260200182805460018160011615610100020316600290048015613c4a5780601f10613c1f57610100808354040283529160200191613c4a565b820191906000526020600020905b815481529060010190602001808311613c2d57829003601f168201915b50505050508152602001600582018054600181600116156101000203166002900480601f016020809104026020016040519081016040528092919081815260200182805460018160011615610100020316600290048015613cec5780601f10613cc157610100808354040283529160200191613cec565b820191906000526020600020905b815481529060010190602001808311613ccf57829003601f168201915b505050505081526020016006820160009054906101000a900473ffffffffffffffffffffffffffffffffffffffff1673ffffffffffffffffffffffffffffffffffffffff1673ffffffffffffffffffffffffffffffffffffffff168152602001600782018054600181600116156101000203166002900480601f016020809104026020016040519081016040528092919081815260200182805460018160011615610100020316600290048015613de45780601f10613db957610100808354040283529160200191613de4565b820191906000526020600020905b815481529060010190602001808311613dc757829003601f168201915b50505050508152505090508181602001818152505080600360008581526020019081526020016000206000820151816000015560208201518160010155604082015181600201556060820151816003019080519060200190613e47929190614194565b506080820151816004019080519060200190613e64929190614194565b5060a0820151816005019080519060200190613e81929190614194565b5060c08201518160060160006101000a81548173ffffffffffffffffffffffffffffffffffffffff021916908373ffffffffffffffffffffffffffffffffffffffff16021790555060e0820151816007019080519060200190613ee5929190614194565b509050507fd7e495504c4d9018ae9d54840e5302471f344fa8731a9ff87d20a40ca5ccac45838260200151836040015184606001518560a0015186608001518760c001518860e00151604051808981526020018881526020018781526020018060200180602001806020018673ffffffffffffffffffffffffffffffffffffffff1673ffffffffffffffffffffffffffffffffffffffff1681526020018060200185810385528a818151815260200191508051906020019080838360005b83811015613fbe578082015181840152602081019050613fa3565b50505050905090810190601f168015613feb5780820380516001836020036101000a031916815260200191505b50858103845289818151815260200191508051906020019080838360005b83811015614024578082015181840152602081019050614009565b50505050905090810190601f1680156140515780820380516001836020036101000a031916815260200191505b50858103835288818151815260200191508051906020019080838360005b8381101561408a57808201518184015260208101905061406f565b50505050905090810190601f1680156140b75780820380516001836020036101000a031916815260200191505b50858103825286818151815260200191508051906020019080838360005b838110156140f05780820151818401526020810190506140d5565b50505050905090810190601f16801561411d5780820380516001836020036101000a031916815260200191505b509c5050505050505050505050505060405180910390a1505050565b604051806101000160405280600081526020016000815260200160008152602001606081526020016060815260200160608152602001600073ffffffffffffffffffffffffffffffffffffffff168152602001606081525090565b828054600181600116156101000203166002900490600052602060002090601f016020900481019282601f106141d557805160ff1916838001178555614203565b82800160010185558215614203579182015b828111156142025782518255916020019190600101906141e7565b5b50905061421091906142a5565b5090565b6040518061016001604052806000815260200160008152602001600081526020016000815260200160608152602001600073ffffffffffffffffffffffffffffffffffffffff168152602001600073ffffffffffffffffffffffffffffffffffffffff1681526020016060815260200160608152602001606081526020016000600381111561429f57fe5b81525090565b6142c791905b808211156142c35760008160009055506001016142ab565b5090565b9056fe5075726368617365205175616e74697479206578636565647320417661696c61626c65205175616e746974794f6e6c79207468652073656c6c65722063616e20726566756e642f7368697020746865206f726465722e50726f64756374205072696365206d7573742062652067726561746572207468616e207a65726f4f72646572206d75737420626520696e2070726f63657373696e6720737461746520746f20626520757064617465642e596f752063616e6e6f7420707572636861736520796f7572206f776e2070726f64756374732e4e6f7420656e6f75676820746f20636f7665722074686520746f74616c20636f73742e596f7520617265206e6f7420746865206f776e6572206f662074686973206c697374696e672e4f6e6c79207468652062757965722063616e2063616e63656c20746865206f726465722e50726f64756374205175616e74697479206d7573742062652067726561746572207468616e207a65726fa265627a7a723158209b216494e54de1a72915b384bac79c1c3c40d1d24e787f384be5698b13d4c94664736f6c634300050c0032",
  "source": "pragma solidity ^0.5.0;\n\ncontract Congo {\n\tstring public name;\n\tuint public productCount;\n\tuint public orderCount;\n\tenum State {Processing,Shipped,Refunded,Canceled}\n\tmapping(uint => Product) public products;\n\tmapping(uint => Order) public orders;\n\n\tstruct Order{\n\t\tuint id;\n\t\tuint quantity;\n\t\tuint prodID;\n\t\tuint256 total;\n\t\tstring prodName;\n\t\taddress payable buyerAddress;\n\t\taddress payable sellerAddress;\n\t\tstring notes;\n\t\tstring sellerContactDetails;\n\t\tstring buyerContactDetails;\n\t\tState orderStatus;\n\n\t}\n\tstruct Product{\n\t\tuint id;\n\t\tuint quantity;\n\t\tuint256 price;\n\t\tstring details;\n\t\tstring name;\n\t\tstring imageLink;\n\t\taddress payable owner;\n\t\tstring sellerContactDetails;\n\t}\n\t//event to be emitted when a new product is listed.\n\tevent listingCreated(\n\t\tuint id,\n\t\tuint quantity,\n\t\tuint256 price,\n\t\tstring details,\n\t\tstring name,\n\t\tstring imageLink,\n\t\taddress payable owner,\n\t\tstring sellerContactDetails\n\t);\n\t//event to be emitted when a listing is updated.\n\tevent listingUpdated(\n\t\tuint id,\n\t\tuint quantity,\n\t\tuint256 price,\n\t\tstring details,\n\t\tstring imageLink,\n\t\tstring name,\n\t\taddress payable owner,\n\t\tstring sellerContactDetails\n\t);\n\t//event to be emitted when an order is updated.\n\tevent orderUpdated(\n\t\tuint orderID,\n\t\tState orderStatus\n\t);\n\t//emit that an order has been created between the two parties\n\tevent orderCreated(\n\t\tuint orderID,\n\t\tuint quantity,\n\t\tuint prodID,\n\t\tuint256 total,\n\t\tstring prodName,\n\t\taddress payable buyerAddress,\n\t\taddress payable sellerAddress,\n\t\tstring notes,\n\t\tstring sellerContactDetails,\n\t\tstring buyerContactDetails,\n\t\tState orderStatus\n\t);\n\tconstructor() public {\n\t\tname = \"Congo Exchange\";\n\t}\n\t//exposed function that lists a product.\n\tfunction createListing(\n\t\tuint _quantity,\n\t\tuint256 _price,\n\t\tstring memory _details,\n\t\tstring memory _name,\n\t\tstring memory _imageLink,\n\t\tstring memory _sellerContactDetails\n\t)\n\tpublic {\n\t\t//validate user's input\n\t\trequire(bytes(_name).length > 0,\"Product name cannot be empty.\");\n\t\trequire(_price > 0, \"Product Price must be greater than zero\");\n\t\trequire(_quantity > 0, \"Product Quantity must be greater than zero\");\n\t\trequire(bytes(_details).length > 0, \"Product Details are empty\");\n\t\trequire(bytes(_sellerContactDetails).length > 0, \"Seller Contact Details are empty\");\n\t\trequire(bytes(_imageLink).length > 0, \"Image Link is empty\");\n\t\tproductCount++;\n\t\t//using product count as an id for now.\n\t\tproducts[productCount] = Product(\n\t\t\tproductCount,\n\t\t\t_quantity,\n\t\t\t_price,\n\t\t\t_details,\n\t\t\t_name,\n\t\t\t_imageLink,\n\t\t\tmsg.sender,\n\t\t\t_sellerContactDetails\n\t\t);\n\t\t//broadcast to listeners that a new item has been listed.\n\t\temit listingCreated(\n\t\t\tproductCount,\n\t\t\t_quantity,\n\t\t\t_price,\n\t\t\t_details,\n\t\t\t_name,\n\t\t\t_imageLink,\n\t\t\tmsg.sender,\n\t\t\t_sellerContactDetails\n\t\t);\n\n\t}\n\t//update listing quantity when order is created and paid for.\n\tfunction updateQuantity(\n\t\tuint _id,\n\t\tuint _newQuantity\n\t)\n\tinternal{\n\t\t//get the product.\n\t\tProduct memory listing = products[_id];\n\t\tlisting.quantity = _newQuantity;\n\t\tproducts[_id] = listing;\n\t\temit listingUpdated(\n\t\t\t_id,\n\t\t\tlisting.quantity,\n\t\t\tlisting.price,\n\t\t\tlisting.details,\n\t\t\tlisting.imageLink,\n\t\t\tlisting.name,\n\t\t\tlisting.owner,\n\t\t\tlisting.sellerContactDetails\n\t\t);\n\t}\n\t//exposed function updates a listing.\n\tfunction updateListing(\n\t\tuint _id,\n\t\tuint _quantity,\n\t\tuint256 _price,\n\t\tstring memory _details,\n\t\tstring memory _name,\n\t\tstring memory _imageLink,\n\t\tstring memory _sellerContactDetails\n\t)\n\tpublic payable{\n\t\t//validate user's input\n\t\trequire(bytes(_name).length > 0,\"Product name cannot be empty.\");\n\t\trequire(_price > 0, \"Product Price must be greater than zero\");\n\t\trequire(_quantity > 0, \"Product Quantity must be greater than zero\");\n\t\trequire(bytes(_details).length > 0, \"Product Details are empty\");\n\t\trequire(_id <= productCount && _id > 0, \"product id is invalid.\");\n\t\trequire(bytes(_sellerContactDetails).length > 0, \"Seller Contact Details are empty\");\n\t\trequire(bytes(_imageLink).length > 0, \"Image Link is empty\");\n\t\t//fetch the product.\n\t\tProduct memory _currentStateOfListing = products[_id];\n\n\t\t//compare if caller's address is the owner of this product.\n\t\taddress payable productOwner = _currentStateOfListing.owner;\n\t\trequire(productOwner == msg.sender, \"You are not the owner of this listing.\");\n\n\t\t//update the listing with new data.\n\t\t_currentStateOfListing.name = _name;\n\t\t_currentStateOfListing.price = _price;\n\t\t_currentStateOfListing.quantity = _quantity;\n\t\t_currentStateOfListing.details = _details;\n\t\t_currentStateOfListing.imageLink = _imageLink;\n\t\t_currentStateOfListing.sellerContactDetails = _sellerContactDetails;\n\n\t\t//update mapping on network\n\t\tproducts[_id] = _currentStateOfListing;\n\n\t\t//broadcast to listeners that an existing product has been updated.\n\t\temit listingUpdated(\n\t\t\t_id,\n\t\t\t_quantity,\n\t\t\t_price,\n\t\t\t_details,\n\t\t\t_imageLink,\n\t\t\t_name,\n\t\t\tmsg.sender,\n\t\t\t_sellerContactDetails\n\t\t);\n\n\t}\n\n\t//exposed function that allows user to purchase products\n\tfunction createOrder(\n\t\tuint _id,\n\t\tuint _quantity,\n\t\tstring memory _notes,\n\t\tstring memory _buyerContactDetails\n\t)\n\tpublic payable{\n\t\t//validate user's input\n\t\trequire(_quantity > 0, \"Product Quantity must be greater than zero\");\n\t\trequire(_id <= productCount && _id > 0, \"product id is invalid.\");\n\t\trequire(bytes(_buyerContactDetails).length > 0, \"Buyer Contact Details are empty\");\n\n\t\t//get the product.\n\t\tProduct memory _listing = products[_id];\n\t\taddress payable seller = _listing.owner;\n\t\taddress payable buyer = msg.sender;\n\t\tuint quantityRemaining = _listing.quantity;\n\t\trequire(_quantity <= quantityRemaining,\"Purchase Quantity exceeds Available Quantity\");\n\t\tuint256 orderTotal = _listing.price * _quantity;\n\t\tquantityRemaining = quantityRemaining - _quantity;\n\t\t//make sure buyer is not seller.\n\t\trequire(buyer != seller, \"You cannot purchase your own products.\");\n\t\t//make sure payment is sufficient.\n\t\trequire(msg.value >= orderTotal, \"Not enough to cover the total cost.\");\n\n\t\t//update the listing quantity.\n\t\tupdateQuantity(_id,quantityRemaining);\n\t\t//create a new order!\n\t\torderCount++;\n\t\torders[orderCount] = Order(\n\t\t\torderCount,\n\t\t\t_quantity,\n\t\t\t_id,\n\t\t\torderTotal,\n\t\t\t_listing.name,\n\t\t\tbuyer,\n\t\t\tseller,\n\t\t\t_notes,\n\t\t\t_listing.sellerContactDetails,\n\t\t\t_buyerContactDetails,\n\t\t\tState.Processing\n\t\t);\n\t\t//broadcast to listeners that an existing product has been updated.\n\t\temit orderCreated(\n\t\t\torderCount,\n\t\t\t_quantity,\n\t\t\t_id,\n\t\t\torderTotal,\n\t\t\t_listing.name,\n\t\t\tbuyer,\n\t\t\tseller,\n\t\t\t_notes,\n\t\t\t_listing.sellerContactDetails,\n\t\t\t_buyerContactDetails,\n\t\t\tState.Processing\n\t\t);\n\t}\n\t//exposed function that allows seller to update orders\n\tfunction updateOrder(\n\t\tuint _id,\n\t\tuint nextState\n\t)\n\tpublic payable{\n\t\t//validate user's input\n\t\trequire(_id <= orderCount && _id > 0, \"order id is invalid.\");\n\t\trequire(uint(State.Canceled) >= nextState,\"invalid input state.\");\n\t\t//get the order.\n\t\tOrder memory _order = orders[_id];\n\t\t//check if caller has permission to edit\n\t\tif (State(nextState) == State.Canceled){\n\t\t\trequire(msg.sender == _order.buyerAddress,\"Only the buyer can cancel the order.\");\n\t\t}else{\n\t\t\trequire(msg.sender == _order.sellerAddress,\"Only the seller can refund/ship the order.\");\n\t\t}\n\t\t//state should only update if processing\n\t\trequire(_order.orderStatus == State.Processing, \"Order must be in processing state to be updated.\");\n\t\t_order.orderStatus = State(nextState);\n\t\t//update order struct in mapping\n\t\torders[_id] = _order;\n\t\t//transfer value.\n\t\tif (State(nextState) == State.Shipped) {\n\t\t\taddress(_order.sellerAddress).transfer(_order.total);\n\t\t} else {\n\t\t\taddress(_order.buyerAddress).transfer(_order.total);\n\t\t\tProduct memory _listing = products[_order.prodID];\n\t\t\tupdateQuantity(_order.prodID, _listing.quantity + _order.quantity);\n\t\t}\n\t\t//broadcast to listeners that an existing order has been updated.\n\t\temit orderUpdated(\n\t\t\t_id,\n\t\t\t_order.orderStatus\n\t\t);\n\t}\n}",
  "sourcePath": "/home/trickedoutdavid/Desktop/cscicap/Congo/contracts/contracts/contracts/Congo.sol",
  "compiler": {
    "name": "solc",
    "version": "0.5.12+commit.7709ece9.Emscripten.clang"
  },
  "schemaVersion": "3.0.19",
  "updatedAt": "2019-12-12T04:37:20.303Z",
  "networkType": "ethereum",
  "devdoc": {
    "methods": {}
  },
  "userdoc": {
    "methods": {}
  }
}